:03000000020F9557
:0C0F9500787FE4F6D8FD75812F020FDC98
:101243004E4C3A20202D20202D20202050494E475F
:10125300004E4C3A20202D20202D20202052554E88
:10126300200074696D65723A2020203A20202020E6
:10127300202000202020202020202020202020208B
:091283002020200074696D650053
:08143000C102C103C101C1802A
:0412E900AD097F07C5
:1012ED00ED75F00A8485F027ED75F00A84F528EF89
:1012FD0024C0FF120003E5282430FF121428E5272F
:06130D002430FF02142849
:04131300AD157F098C
:10131700ED75F00A8485F027ED75F00A84F528EF5E
:101327002480FF120003E5282430FF121428E52744
:061337002430FF0214281F
:10133D00ED540FF527EDC4540FF528EF24C0FF121F
:10134D000003E5282430FF121428E5272430FF027E
:02135D00142852
:101021008F277F8C120003E527B40700507A9010B8
:1010310036F828287302109A02104B02105402103D
:101041006202107002107E02108C7F4D1214287FF4
:101051004F804D7F541214287F551214287F4580EC
:10106100447F571214287F451214287F4480367F0D
:10107100541214287F481214287F5580287F461265
:1010810014287F521214287F49801A7F5312142882
:101091007F541214287F41800C7F531214287F55EE
:0910A1001214287F4E12142822BB
:10001E00308E10E50F700CE517700830A50320A682
:10002E0002C20020A7367F097E0012129D20A72C47
:10003E00E50F7025E5177021C2A37F14FE12129DE5
:10004E00D2A3308E04C28E80100513D200E513B4F5
:10005E000307E4F50FF517F51330A7FD30A40302DF
:10006E0001B67F0A7E0012129D30A4030201B6C2B1
:10007E00A37F147E0012129DD2A330A4FDE513645B
:10008E0002600302012A0517E517B40405E4F5170B
:10009E00F50FE51714605214605314605424036076
:1000AE00030201B67F0C1200037FC0120003E4F5B9
:1000BE001DAF1DEF3395E0FE74652FF58274123E71
:1000CE00F583E493FF121428051DC3E51D64809487
:1000DE009040DE1212E9AD087F0A1212ED7FCD12AA
:1000EE0000037F4F30022580177FC880677FCB804B
:1000FE00637F0C1200037FCD1200037F4F30020C82
:10010E001214287F4E1214287F20800A1214287F82
:10011E00461214287F461214280201B6E513600316
:10012E000201B6050FE50FB40703E4F50FE50FB4B2
:10013E0007005074900149F82828730201800201CB
:10014E005E02016902016D020171020175020179FF
:10015E00C28C7FC71200037F0F80127FC4800E7F78
:10016E00C1800A7F8A80067F8780027F8412000307
:10017E0080367F0C120003D28CE50C75F00A12103B
:10018E00AAC454F0FFE50C75F00A1210AAAEF0EFF7
:10019E002EF50DE4FD7F8E121404AD0D7F8012142A
:1001AE00047D807F8E121404E50F7003020605E5B0
:1001BE0017600302060530A5030203E47F0AFE1250
:1001CE00129D30A5030203E4C2A37F147E00121217
:1001DE009DD2A330A5FDE50F24FE606814700302C6
:1001EE00029B1470030202E41470030203371470AE
:1001FE000302038D240560030203E4050CC3E50C22
:10020E00648094BC4003E4F50CAD0C7F061212ED35
:10021E00E50C75F00A1210AAC454F0FFE50C75F047
:10022E000A1210AAAEF0EF2EF50DE4FD7F8E121419
:10023E0004AD0D7F801214047D807F8E1214047F16
:10024E00C70203E1050EC3E50E648094BC4003E4CF
:10025E00F50EAD0E7F031212EDE50E75F00A1210BB
:10026E00AAC454F0FFE50E75F00A1210AAAEF0EF14
:10027E002EF50DE4FD7F8E121404AD0D7F82121447
:10028E00047D807F8E1214047FC40203E10511C326
:10029E00E511648094984003E4F511AD11E4FF126A
:1002AE0012EDE51175F00A1210AAC454F0FFE51113
:1002BE0075F00A1210AAAEF0EF2EF50DE4FD7F8E4A
:1002CE00121404AD0D7F841214047D807F8E1214DF
:1002DE00047FC10203E10515C3E515648094A040B7
:1002EE0003751501AB15AD12AF0B1212BBAF181281
:1002FE001021121313E51575F00A1210AAC454F04A
:10030E00FFE51575F00A1210AAAEF0EF2EF50DE40A
:10031E00FD7F8E121404AD0D7F861214047D807F36
:10032E008E1214047F8A0203E10512C3E512648063
:10033E00948D4003751201AB15AD12AF0B1212BBAB
:10034E00AF18121021AD127F06121317E51275F0B9
:10035E000A1210AAC454F0FFE51275F00A1210AA80
:10036E00AEF0EF2EF50DE4FD7F8E121404AD0D7F71
:10037E00881214047D807F8E1214047F87805405AA
:10038E000BC3E50B648094E44003E4F50BAB15ADB1
:10039E0012AF0B1212BBAF18121021AD0B7F03124E
:1003AE001317E50B75F00A1210AAC454F0FFE50BF3
:1003BE0075F00A1210AAAEF0EF2EF50DE4FD7F8E49
:1003CE00121404AD0D7F8C1214047D807F8E1214D6
:1003DE00047F8412000330A6030206057F0A7E0006
:1003EE0012129D30A603020605C2A37F147E0012D0
:1003FE00129DD2A330A6FDE50F24FE606814700393
:10040E000204BC147003020505147003020558148F
:10041E0070030205AE24056003020605150CC3E544
:10042E000C648094805003750C3BAD0C7F06121249
:10043E00EDE50C75F00A1210AAC454F0FFE50C7528
:10044E00F00A1210AAAEF0EF2EF50DE4FD7F8E121B
:10045E001404AD0D7F801214047D807F8E1214045F
:10046E007FC7020602150EC3E50E6480948050030A
:10047E00750E3BAD0E7F031212EDE50E75F00A12EE
:10048E0010AAC454F0FFE50E75F00A1210AAAEF0D1
:10049E00EF2EF50DE4FD7F8E121404AD0D7F82124A
:1004AE0014047D807F8E1214047FC402060215117F
:1004BE00C3E511648094805003751117AD11E4FFEC
:1004CE001212EDE51175F00A1210AAC454F0FFE5F0
:1004DE001175F00A1210AAAEF0EF2EF50DE4FD7FA5
:1004EE008E121404AD0D7F841214047D807F8E1243
:1004FE0014047FC10206021515D3E515648094809D
:10050E00500375151FAB15AD12AF0B1212BBAF1802
:10051E00121021121313E51575F00A1210AAC45405
:10052E00F0FFE51575F00A1210AAAEF0EF2EF50DDC
:10053E00E4FD7F8E121404AD0D7F861214047D80AF
:10054E007F8E1214047F8A0206021512D3E51264FE
:10055E00809480500375120CAB15AD12AF0B1212B6
:10056E00BBAF18121021AD127F06121317E51275CC
:10057E00F00A1210AAC454F0FFE51275F00A121018
:10058E00AAAEF0EF2EF50DE4FD7F8E121404AD0D24
:10059E007F881214047D807F8E1214047F8780540E
:1005AE00150BC3E50B648094805003750B63AB157C
:1005BE00AD12AF0B1212BBAF18121021AD0B7F0391
:1005CE00121317E50B75F00A1210AAC454F0FFE5CA
:1005DE000B75F00A1210AAAEF0EF2EF50DE4FD7FAA
:1005EE008E121404AD0D7F8C1214047D807F8E123A
:1005FE0014047F84120003E5177003020708E50F49
:10060E00600302070820A5787F0AFE12129D20A51E
:10061E006FC2A37F147E0012129DD2A330A5FDE5FA
:10062E001714604614602A147056B2027FCD120061
:10063E00037F4F30020C1214287F4E1214287F2095
:10064E00800A1214287F461214287F46121428801E
:10065E002F0508C3E508648094BC4003E4F508AD9B
:10066E00087F0A1212ED7FCB80130509C3E50964DA
:10067E008094984003E4F5091212E97FC812000332
:10068E0020A6777F0A7E0012129D20A66DC2A37F40
:10069E00147E0012129DD2A330A6FDE517146044FD
:1006AE00146028147054B2027FCD1200037F4F30B5
:1006BE00020C1214287F4E1214287F20800A121466
:1006CE00287F461214287F460214281508C3E50811
:1006DE0064809480500375083BAD087F0A1212EDBA
:1006EE007FCB80131509C3E5096480948050037590
:0B06FE0009171212E97FC81200032246
:10135F00758911E4F58CF58A758D3C758BB0D2AF1C
:0D136F00D2A9D2ABD28AC288D28CC28E2203
:1011EE00E511B5090EE50EB50809E50C70053000E0
:1011FE0002D28EE511B5091DAF08EF3395E0FEEF73
:10120E002401FFE43EFEAD0EED3395E0FCEF6D7074
:10121E0002EE6C6003200004C28ED2A3E511B50964
:10122E0013D3E5086480F8E50E6480984006C28EFC
:05123E00D2A3D2002242
:1013B100C2A37F057E0012129DD2A30510E510B5D0
:0813C1001405E4F510C203223B
:101133007590FF1211911213F212135FD2A37F6401
:101143007E0012129DC2A312001E3002031211EE82
:10115300E50E7026E50C7022D3E5116480948C4073
:1011630008E51124F4F514800CE511700575140CD1
:101173008003851114850C0AD2033003CA1213B1FC
:0E11830012001EE50A650C60F7850C0A80B9A3
:03000B00020709E0
:10070900C0E0C0F0C083C082C0D075D000C000C0B6
:1007190001C002C003C004C005C006C0077F811222
:10072900000E1214138F0C7F8312000E1214138FF4
:100739000E7F8512000E1214138F117F8712000E7F
:100749001214138F157F8912000E1214138F127F42
:100759008D12000E1214138F0BE51364016003024E
:02076900086F17
:10076B00EF3395E0F5258F267E00E52654F0FF7CD0
:10077B00007D0A1210CCEF24D0FFE5262FFF752346
:10078B0000EF540FF524AE23FF0C7D901210DEED1D
:10079B004C6015AE23AF247C007D641210DEED4C53
:1007AB00600AE52454037004D2018002C201C20422
:1007BB00850B27851228851529120C177FC012006F
:1007CB0003751D00AF1DEF3395E0FE200109744347
:1007DB002FF5827412800774542FF58274123EF534
:1007EB0083E493FF121428051DC3E51D64809490C8
:1007FB0040D2AD1B7F0312133DAD1A7F0612133D82
:10080B00AD1C7F0912133D12001EE513640160F746
:10081B007FC0120003751D00AF1DEF3395E0FE7412
:10082B00762FF58274123EF583E493FF121428059C
:10083B001DC3E51D6480949040DE7FC012000375DC
:10084B001D00AF1DEF3395E0FE74D52FF5827413A9
:10085B003EF583E493FF121428051DC3E51D648048
:04086B00948840DE4F
:10086F00E5136402600302092E7FC0120003751D99
:10087F0000AF1DEF3395E0FE74652FF58274123EC5
:10088F00F583E493FF121428051DC3E51D648094BE
:10089F009040DE1212E9AD087F0A1212ED7FCD12E1
:1008AF0000037F4F30020C1214287F4E1214287F42
:1008BF0020800A1214287F461214287F461214280B
:1008CF0012001EE513640260F77FC0120003751D4E
:1008DF0000AF1DEF3395E0FE74762FF58274123E54
:1008EF00F583E493FF121428051DC3E51D6480945E
:1008FF009040DE7FC0120003751D00AF1DEF3395D2
:10090F00E0FE74D52FF58274133EF583E493FF1246
:10091F001428051DC3E51D6480948840DE803F7F49
:10092F00CC120003751D00AF1DEF3395E0FE7487E9
:10093F002FF58274123EF583E493FF121428051DE0
:10094F00C3E51D6480948440DEAD0C7F061212ED6A
:10095F00AD0E7F031212EDAD11E4FF1212ED121363
:10096F0013AD127F06121317AD0B7F03121317ABC4
:10097F0015AD12AF0B1212BBAF18121021D007D04A
:10098F0006D005D004D003D002D001D000D0D0D0F3
:08099F0082D083D0F0D0E032D9
:03001B0002137C51
:10137C00C0E0C0D0758D3C758BB00516E516B40A6F
:0B138C0005751600B2A3D0D0D0E032EF
:1009A70004AE530A57485526BD0D26500D954446AB
:1009B700AAB9056A4D09AD4224AEB604AE4A6A4DDE
:1009C700BE0A4D520D25465D52BA0B544E0D6A4371
:1009D700296D37095B4B749BC10497540A4B485BDD
:1009E70025BC06A55006D4454ADAB802B64D0957C4
:1009F700422497B704974A664B3E0D4A510EA546C7
:100A070056D4BA05AD4E02B644393738092E4B7C59
:100A170096BF0C95530D4A486DA53B0B554F056A7C
:100A2700454AADB9025D4D092D422C95B60A954A46
:100A37007B4ABD06CA510B5546555ABB04DA4E0AC6
:100A47005B43352BB8052B4C8A953F0E955206AA6A
:100A5700487AD53C0AB54F04B6454A57390A574D27
:100A67000526423E93350D954975AABE056A51097B
:100A77006D4654AEBB04AD4F0A4D434D26B70D2509
:100A87004B8D52BF0B54520B6A47696D3C095B5043
:100A9700049B454A4BB90A4B4DAB25C206A55406E4
:100AA700D4496ADA3D0AB6510937465497BB0497C9
:100AB7004F064B4436A5370EA54A86B2BF05AC5341
:100AC7000AB6475936BC092E500C96454D4AB80D03
:100AD7004A4C0DA54125AAB6056A497AADBD025D06
:100AE70052092D475C95BA0A954E0B4A434B553729
:100AF7000AD54A955ABF04BA530A5B48652BBC0509
:100B07002B500A9345474AB906AA4C0AD54124DA1D
:100B1700B604B64A69573D0A4E510D26465E933ACA
:100B27000D534D05AA4336B537096D4BB4AEBF0417
:100B3700AD530A4D486D25BC0D254F0D52445DAA96
:100B4700380B5A4C056D4124ADB6049B4A7A4BBE0F
:100B57000A4B510AA5465B52BA06D24E0ADA42350B
:100B67005B3709374B8497C1049753064B4866A5F3
:100B77003C0EA54F06B2444AB6380AAE4C092E427F
:100B87003C97350C96497D4ABD0D4A510DA54555F3
:100B9700AABA056A4E0A6D43452EB7052D4B8A95AD
:100BA700BF0A95530B4A476B553B0AD54F055A4524
:100BB7004A5D380A5B4C052B423A93B60693497750
:100BC70029BD06AA510AD54654DABA04B64E0A57C1
:100BD700434527380D264A8E933E0D52520DAA479C
:100BE70066B53B056D4F04AE454A4EB90A4D4C0DEF
:100BF70015412D92B5001F3B5A7897B5D4F30111D3
:100C07000130014E00030306010406020500030537
:060E4A00AD2FAC2EAF2B12
:100E5000EF14B40D004003020F93900E6875F00379
:100E6000A4C58325F0C58373020E8F020EA3020E64
:100E7000B7020ECB020EDF020EF3020F07020F1BAA
:100E8000020F2F020F43020F57020F6B020F7F74E6
:100E9000A72DF58274093CF583E49354087002C3CE
:100EA00022D32274A72DF58274093CF583E4935470
:100EB000047002C322D32274A72DF58274093CF575
:100EC00083E49354027002C322D32274A72DF582C7
:100ED00074093CF583E49354017002C322D3227455
:100EE000A82DF58274093CF583E49354807002C305
:100EF00022D32274A82DF58274093CF583E493541F
:100F0000407002C322D32274A82DF58274093CF5E7
:100F100083E49354207002C322D32274A82DF58257
:100F200074093CF583E49354107002C322D32274F5
:100F3000A82DF58274093CF583E49354087002C32C
:100F400022D32274A82DF58274093CF583E49354CE
:100F5000047002C322D32274A82DF58274093CF5D3
:100F600083E49354027002C322D32274A82DF58225
:100F700074093CF583E49354017002C322D32274B4
:100F8000A92DF58274093CF583E49354807002C363
:040F900022D322D373
:010F9400223A
:100C1700E527C4540FFBE527540FFAEBC454F02A19
:100C2700F527E528C4540FFBE528540FFAEBC45405
:100C3700F02AF528E529C4540FFBE529540FFAEBF0
:100C4700C454F02AF529E5272004072463FFE43379
:100C5700800624FFFFE434FFFE7C007D031210CCE6
:100C67008E2E8F2F74A9252FF5827409352EF583C3
:100C7700E493FE5460FB7805FF08800103D8FDFB71
:100C8700EE541FFABB010514F52A8005EA241EF568
:100C97002AE528C3940AE528500B900BFB932529D6
:100CA700FFE433801525E024F1F582E4340BF58366
:100CB7007401932529FFE4933400CF24FFF52DEF2A
:100CC70034FFF52CE528D39402400EE52754037032
:100CD70008052DE52D7002052CAF2A7E00C3E52DF2
:100CE7009FE52C9E4079E52D9FF52DE52C9EF52C53
:100CF700752801752B01120E4A9205C206200504BC
:100D07007B1D80027B1E74A7252FF5827409352E63
:100D1700F583E49354F0FA7804FF08800103D8FDC3
:100D2700FAEBFF7E00C3E52D9FE52C9E402CE52DB9
:100D37009FF52DE52C9EF52C052BE528B50209B26C
:100D470006200606052880020528120E4A9205206D
:100D570005047B1D80CB7B1E80C7E52D020DEBC3F1
:100D6700E52A952DF52AE5277007752763D20480B4
:100D770002152774FD252FF52F74FF352EF52E75D7
:100D8700280CFE74A7252FF58274093EF583E4939A
:100D970054F0FA7804FF08800103D8FDFA7005754E
:100DA7002B0C8003752B0DC206120E4A92052005E7
:100DB700047B1D80027B1EE52AD39B4023E52A9BEB
:100DC700F52A152B2006021528E528B50202B206DA
:100DD700120E4A92052005047B1D80DB7B1E80D7FF
:100DE700C3EB952A04F529A2049207E52775F00AB3
:100DF70084FB7804FF08800123D8FDFBE52775F005
:100E07000A84AAF0EB4AF51BE52875F00A84FB78FB
:100E170004FF08800123D8FDFBE52875F00A84AAA2
:100E2700F0EB4AF51AE52975F00A84FB7804FF0808
:100E3700800123D8FDFBE52975F00A84AAF0EB4A67
:020E4700F51C98
:010E49002286
:1012BB0074642FFF1313543F2F75F00784AEF0EEB9
:1012CB002BFEED900C0A932EFEEF54037007EDC32B
:0D12DB00940350011EEE75F0078485F01895
:0112E80022E3
:06139700C2B6C2B4D2B6DA
:10139D00EFD2B6751D08A2E092B5C2B4D2B4C31394
:0413AD00D51DF32235
:1013DE00D2B6751D08A2B592E7D2B4C2B4C313D566
:0413EE001DF3FF22CA
:0F140400AE05121397AF0612139DD2B4C2B622D3
:0A000E001213971213DED2B4C2B62B
:0100180022C5
:0F141300EFC4540F75F00AA4FEEF540F2EFF2202
:1013F200C2B6C2B4E4FD7F8E1214047D807F8E02D9
:021402001404D0
:1013C900323020202D20202D2020200020203A20DE
:0513D900203A20200075
:10128C00C2A18F807F017E0012129DD2A27F017EAF
:01129C000051
:10129D00D3EF9400EE940040147D6E7C00ED1D7034
:0D12AD00011CED4C70F7EF1F70E61E80E392
:0112BA002211
:08000300C2A012128CC2A2225D
:061422003EF583E493FF98
:08142800D2A012128CC2A22214
:101191007F381200037F0C1200037F061200037FC9
:1011A100011200037F81120003E4F51DAF1DEF332F
:1011B10095E0FE74C92FF5827413121422051DC324
:1011C100E51D6480948E40E47FC0120003E4F51DA8
:1011D100AF1DEF3395E0FE74D52FF5827413121411
:0D11E10022051DC3E51D6480948840E422B2
:100FA100021133E493A3F8E493A34003F68001F222
:100FB10008DFF48029E493A3F85407240CC8C33351
:100FC100C4540F4420C8834004F456800146F6DF20
:100FD100E4800B0102040810204080901430E47E6C
:100FE100019360BCA3FF543F30E509541FFEE49315
:100FF100A360010ECF54C025E060A840B8E493A3DC
:10100100FAE493A3F8E493A3C8C582C8CAC583CA06
:10101100F0A3C8C582C8CAC583CADFE9DEE780BEBE
:0114380000B3
:1010AA00C2D530F707B2D563F0FF05F030E70CB2CE
:1010BA00D5F4048463F0FF05F080018430D502F48E
:0210CA000422FE
:1010CC00EF8DF0A4A8F0CF8CF0A428CE8DF0A42E38
:0210DC00FE22F2
:1010DE00BC000BBE0029EF8DF084FFADF022E4CCF6
:1010EE00F875F008EF2FFFEE33FEEC33FCEE9DECBF
:1010FE00984005FCEE9DFE0FD5F0E9E4CEFD22ED05
:10110E00F8F5F0EE8420D21CFEADF075F008EF2F4E
:10111E00FFED33FD4007985006D5F0F222C398FD3F
:05112E000FD5F0EA22DC
:00000001FF
