:020000040800F2
:10000000D85B0020D95400085106000853060008A8
:1000100055060008570600085906000800000000B1
:100020000000000000000000000000002D02000899
:100030005B0600080000000071020008ED52000895
:10004000F3540008F3540008F3540008F354000874
:10005000F3540008F3540008F3540008F354000864
:10006000F3540008F3540008F3540008F354000854
:10007000F3540008F3540008F3540008F354000844
:10008000F3540008F3540008F3540008F354000834
:10009000F3540008F3540008F3540008F354000824
:1000A000F3540008F3540008F3540008F354000814
:1000B000F3540008F3540008F3540008F354000804
:1000C000F3540008F3540008F3540008F3540008F4
:1000D000F354000871540008F3540008F354000866
:1000E000F3540008F3540008F3540008F3540008D4
:1000F000F3540008F3540008F3540008F3540008C4
:10010000F3540008F3540008F3540008F3540008B3
:10011000F3540008F3540008F3540008F3540008A3
:10012000F3540008F3540008F3540008F354000893
:1001300000F002F800F06BF80AA090E8000C82448E
:100140008344AAF10107DA4501D100F060F8AFF26B
:10015000090EBAE80F0013F0010F18BFFB1A43F0A5
:10016000010318479CBD0000BCBD00000A444FF0CD
:10017000000C10F8013B13F0070408BF10F8014B06
:100180001D1108BF10F8015B641E05D010F8016B4B
:10019000641E01F8016BF9D113F0080F1EBF10F8AF
:1001A000014BAD1C0C1B09D16D1E58BF01F801CBD2
:1001B000FAD505E014F8016B01F8016B6D1EF9D555
:1001C0009142D6D37047000000230024002500266A
:1001D000103A28BF78C1FBD8520728BF30C148BFAA
:1001E0000B607047642908F04186752908F03E8647
:1001F000782908F07786632908F0FF87732909F0CA
:100200000480002070471FB51FBD10B510BD09F058
:100210009BF81146FFF7F7FF00F0FDF809F0B9F879
:1002200003B4FFF7F2FF03BC05F0CCF8224B1968CA
:100230000868B0E8F00F80F30988BFF36F8F4FF0C4
:10024000000080F311884EF00D0E70470000000092
:1002500006480068006880F3088862B661B6BFF39C
:100260004F8FBFF36F8F00DF00BF00BF08ED00E0CE
:10027000EFF30980BFF36F8F0F4B1A6820E9F00F7F
:10028000106008B54FF0500080F31188BFF34F8F16
:10029000BFF36F8F07F020FA4FF0000080F3118852
:1002A000BDE8084019680868B0E8F00F80F30988D5
:1002B000BFF36F8F704700BFDC000020EFF30580B5
:1002C00070470000944D954C4FF4FA76687858B119
:1002D000D4F8940130B10021C4F89411304607F0ED
:1002E0002FF9F3E70121F7E70A20F8E78A4C8C4E53
:1002F00000250021606906F0E5F8800701D5C6F801
:1003000094510A2007F01CF9F3E71CB510254FF4AF
:100310008276814C03F04FFA90B182A008F028FD5C
:1003200084A0CDE90050102332469621502003F0DE
:1003300069F80121606905F0B4FF0120607021E0D7
:1003400080A008F015FD83A0CDE9005010233246AF
:100350009621502003F056F82078401CC0B220703F
:1003600003280FD10221606905F09BFF206907F087
:10037000DDF97CA0CDE90050102332466421002035
:1003800003F040F8642007F0DBF8C3E77CB508F021
:1003900057FB05F079FF604D686110B175A008F05A
:1003A000E7FC5D49022008310023CDE9000102028B
:1003B00078A1AFF2A90006F001FF0446012802D19E
:1003C00077A008F0D5FC544803260C30CDE9006036
:1003D0000023802279A1AFF2EB0006F0EFFE012CA2
:1003E00002D179A008F0C4FC4B4800231030CDE9BD
:1003F000006080227CA1AFF2331006F0DFFE012CFA
:1004000002D17CA008F0B4FC686806F002FFBDE8E9
:100410007C4008F02FBB1CB54FF4A06005F07CF8C1
:1004200004F06EFF4FF4E13004F0D6FF03F080FAE1
:1004300000F076FB00F0D4FE764C2068804794F8FC
:100440003000000626D4102473A0CDE900402346D6
:10045000C8221E21002002F0D5FF74491F2010235E
:10046000088073A0CDE90040C8223C21002002F0A2
:10047000C9FF294C002000F06DFBA070012809D0B5
:100480000228F7D14FF6FF7000F095FE04F06BFBE9
:1004900004F081FA204AAA211832002003F05CF807
:1004A00000241023224621464120009402F0D3FF6D
:1004B0001023022200215520009402F0CCFF1023CB
:1004C000042200216920009402F0C5FF10230622B7
:1004D00000217D20009402F0BEFF1023082200219D
:1004E0009120009402F0B7FF10230A220021A520DA
:1004F000009402F0B0FF08490120091D0023CDE956
:10050000000180224FA1AFF27B1006F057FE07F0EA
:10051000FBF900201CBD0000000000200000234269
:1005200000802142C3DCC2EBCAE4C8EBD5FDC8B7EA
:100530000D0A000070617373776F7264206D6174CF
:1005400063680000C3DCC2EBCAE4C8EBB4EDCEF3D1
:100550000D0A000070617373776F726420657272A8
:100560006F7200004C6F636B203320686F7572737D
:10057000000000004576656E7447726F75704861C3
:100580006E646C6572CAC2BCFEB4B4BDA8B3C9B90E
:10059000A60D0A004C43445F7461736B00000000B9
:1005A0004C43445F5441534B5F5052494FC8CECEE9
:1005B000F1B4B4BDA8B3C9B9A60D0A006C65643026
:1005C0005F7461736B0000004C4544305F544153CD
:1005D0004B5F5052494FC8CECEF1B4B4BDA8B3C999
:1005E000B9A60D0A000000006C6564315F74617388
:1005F0006B0000004C4544315F5441534B5F5052F7
:10060000494FC8CECEF1B4B4BDA8B3C9B9A60D0A3E
:10061000000000008800002041646A757374207433
:100620006865204C4344203F000000006E0000201D
:100630007965733A4B455931206E6F3A4B455930C5
:100640000000000073746172745F7461736B00006A
:100650007047FEE7FEE7FEE7FEE770470CB50022B5
:100660004C4800920192016841F4803101604FF4DE
:10067000A063016801F4003101910099491C0091C7
:10068000019911B900999942F3D10168890333D5D1
:100690000121019140490A6842F010020A600A688B
:1006A00022F003020A600A6842F002020A6041680E
:1006B000416041684160416841F480614160416846
:1006C00021F47C114160416841F4E8114160016806
:1006D00041F08071016001688901FCD5416821F019
:1006E00003014160416841F0020141604168C1F38A
:1006F00081010229FAD10CBD01920CBD254810B52B
:10070000016841F0010101604168244A11404160E3
:100710000168234A11400160016821F480210160D1
:10072000416821F4FE0141604FF41F018160FFF731
:1007300095FF1C494FF00060086010BD154A10B5C8
:100740005068194B10F00C01184803D0042901D04F
:10075000082901D0036012E05168536801F4701158
:100760004FF0020413F4803F04EB914102D0536830
:100770009B0301D50E4B00E00B4B594301605168C0
:100780000A4AC1F30311121D515C0268CA4002609B
:1007900010BD000000100240002002400000FFF8E1
:1007A000FFFFF6FE08ED00E000127A005400002082
:1007B00000093D0000F09EB810B5044600F0B2F804
:1007C000200AA02101EB4000C0B200F043F900F084
:1007D000E2F8E0B200F03EF900F0DDF800F0A2F837
:1007E000A12000F037F900F0D6F8002000F061F900
:1007F000044600F0B3F8204610BD70B50D4604461F
:1008000000F090F8200AA02101EB4000C0B200F0F7
:1008100021F900F0C0F8E0B200F01CF900F0BBF8DC
:10082000284600F017F900F0B6F800F097F8BDE898
:1008300070400A2004F09ABD2DE9F04116460D469D
:100840000746002409E0E00025FA00F0C1B238199B
:1008500080B2FFF7D2FF641CE4B2B442F3D3BDE828
:10086000F0812DE9F0410D460146002004464E1965
:1008700008E00702301B401E80B2FFF79DFF641C9A
:100880003844E4B2AC42F4D3E9E710B5FF20FFF7F7
:1008900093FF55280AD05521FF20FFF7AEFFFF2018
:1008A000FFF78AFF552801D0012010BD002010BDA0
:1008B00070B515460E46044608E02046641CA4B2F6
:1008C000FFF77AFF6D1E06F8010BADB2002DF4D1D3
:1008D00070BD70B514460D46064606E029783046D0
:1008E000FFF78BFF761CB6B26D1C641EA4B2F5D266
:1008F00070BD000038B50121082005F0E2FAC020E3
:10090000ADF8000010208DF803000320824C8DF814
:1009100002006946204605F0ECF8C021204605F0AB
:1009200052F938BD70B57C48016821F07041016012
:10093000016841F040510160784C0120C4F89C01ED
:10094000C4F89801042004F5CC7404F0F7FC0025E9
:100950006560042004F0F2FC256070BD6E4810B59F
:10096000016821F070410160016841F0405101606F
:100970006A4C0020C4F89801C4F89C01042004F5D6
:10098000CC7404F0DBFC012020606060BDE8104006
:10099000042004F0D3BC70B55F480024016821F046
:1009A00070410160016841F0004101605B4D01262A
:1009B000C5F89C61304604F0C1FCC5F8986101207F
:1009C00004F0BCFC07E0641CE4B2FA2C03D9FFF786
:1009D000C5FF012070BDD5F81C010028F3D1C5F872
:1009E000980170BD70B54D4C0025C4F898514A4827
:1009F000016821F070410160016841F040510160DF
:100A0000C4F89C51022004F5CC7404F097FC01203A
:100A10002060022004F092FC256070BD70B53F4C50
:100A20000026C4F898613C48016821F070410160DB
:100A3000016841F0405101600125C4F89C51022039
:100A400004F5CC7404F07AFC2560022004F076FCF6
:100A5000266070BD2DE9F04105462F48016821F060
:100A600070410160016841F0405101602B4E002748
:100A7000C6F898713C464FF00108280602D5C6F822
:100A80009C8101E0C6F89C716806050E022004F006
:100A900055FCC6F89881022004F050FCC6F8987105
:100AA000022004F04BFC641CE4B2082CE5D3BDE842
:100AB000F0812DE9F047814617480024016821F0B4
:100AC00070410160016841F000410160134E25460C
:100AD00027464FF00108C6F89871022004F02EFC5A
:100AE000C6F898816006040ED6F81C0108B1641C93
:100AF000E4B2012004F022FC6D1CEDB2082DEAD313
:100B0000B9F1000F04D0FFF76DFF2046BDE8F08774
:100B1000FFF784FFF9E70000000C0140008021424C
:100B200008B50121442005F0CCF91820ADF80000EB
:100B300048208DF8030069462D4804F0DAFF0120B3
:100B4000ADF8000028208DF803006946294804F01C
:100B5000D0FF08BD2DE9F041274C264F244D01263A
:100B600008B1267001E0207878B11021284605F000
:100B700016F888B10821284605F011F860B1012166
:100B8000384605F00CF8012806D01021284605F05B
:100B900006F801281DD028E00A2004F0E7FB002019
:100BA00020701021284604F0FAFF58B10821284689
:100BB00004F0F5FF48B10121384604F0F0FF0128A8
:100BC00005D012E00120BDE8F0810220FBE7032000
:100BD000F9E70821284604F0E2FF012805D10121A8
:100BE000384604F0DCFF00B926700020EBE7000077
:100BF000001801400008014068000020FE490880FC
:100C00007047FD49891C08807047FB4808B5801C67
:100C10000088ADF80000BDF8000008BDF64A10805D
:100C2000901C01807047F44910B50880052004F03D
:100C300085FBBDE81040E8E7F048EF4900890880EF
:100C40007047ED49891C08807047C0F34511C20AFE
:100C5000C00200EB4110104480B27047401EC0B289
:100C6000FCD270472DE9F043DFF89093E24F4A46FB
:100C7000B9F804C09389050A0C0ABE1C5289ACF568
:100C8000C858B8F163080ED0ACF5A048B8F5A26812
:100C90003A80358033D0C0B230803B803480C8B2D7
:100CA0003080BDE8F083DFF854C399F80680BCF8C3
:100CB00000C0B8F1000F16D03A803580C0B2308045
:100CC000ACF1010C4FEA1C2030800CF0FF003080AA
:100CD0003B803480C8B23080B9F80200401E010A5F
:100CE0003180C0B2DCE7ACEB0000401E80B23A803D
:100CF000002232803280020A3280C0B2E7E7521C02
:100D00003A80C0B230803B8034805B1C3B80C6E7B9
:100D100010B5BA4C2288824202D962888A4201D830
:100D2000002010BDFFF79EFFA088B349A0F5AA429E
:100D3000103A1AD02E200880FFF767FFA188A1F58E
:100D4000C852633AEDD0FFF760FF0146FFF75DFF41
:100D5000CAB24FF6FF7303EA02226FF30A01920A46
:100D600041EA421141EAD02010BD4FF43850E2E789
:100D7000A248A1498088A0F5AA42103A02D02920B1
:100D8000088070474FF42450FAE79C489A498088BD
:100D9000A0F5AA42103A02D02820088070474FF4EC
:100DA0002050FAE770B5954C00232146A279898836
:100DB00041F66316012A01D01AB11BE0B14202D1FB
:100DC00018E0B14216D1082814D2DFE800F004067A
:100DD000080A0C0E101206200CE007200AE004207E
:100DE00008E0052006E0012004E0002002E00320E6
:100DF00000E00220082812D2DFE800F01104060803
:100E00000A0C0E1080230AE0402308E0C02306E00D
:100E1000202304E0602302E0A02300E0E02345F269
:100E20001055A94202D14FF4585000E03620A1F5E8
:100E30001342413A03D0A1F5EE42893A01D143F081
:100E400008031946FFF7EAFEA288B2420AD09806C4
:100E50002088618802D5884202D303E0884201D904
:100E6000218060806449881CAA4262890A8021D15D
:100E700000230380531C0B8000230380931C0B80F2
:100E800023885B1E1D0A0580D21C0A80DAB202800C
:100E9000A2890A8000230380531C0B800023038057
:100EA000931C0B8063885B1E1C0A0480D21C0A8082
:100EB000D9B212E00022028002802288521E130A58
:100EC0000380D2B20280A2890A80002101800180C1
:100ED0006188491E0A0A0280C9B2018070BD00B54E
:100EE000FFF7C0FEFFF7A8FE45484349891C40882C
:100EF000088000BD2DE9F047DFF8009192464A4690
:100F0000B9F80460DFF8F0C093890C0A050A528929
:100F1000A6F5A0480CF10207B8F5A2680CD0A6F51A
:100F2000C858B8F1630816D0ACF800203D80C0B2B4
:100F30003880ACF8003024E0ACF800203D80521C32
:100F4000ACF80020C0B23880ACF800303C805B1CAC
:100F5000ACF8003016E099F8066026B9B9F80050F0
:100F6000281A401E80B2ACF80020020A3A80C5B2AE
:100F70003D803A80C0B23880ACF800303C80C8B2C6
:100F800038803C80C8B23880B9F80800ACF800005E
:100F9000A7F800A0BDE8F087174A10B5BE21118060
:100FA000941C0521218008F004FB4FF06632154B9C
:100FB00008F04EFB08F0D0FA208001202080FF20AE
:100FC000208000202080208010BD2DE9F04F0B4BA9
:100FD0002C272B2598714FF4305A4FF4285B4FF48F
:100FE000487441F6631E2A264FF0F00845F2105966
:100FF0004FF4A07C194607E0FE07006C500100206A
:101000006C0000206666044089884FF4F072C0B11D
:10101000A3F800C0A3F80280494532D1A3F808A084
:10102000A3F80AB0280298811C805A80A1F5A64036
:10103000103802D11A80A3F802C0BDE8F04F00209A
:10104000B0E6A3F80080A3F802C0494507D1A3F891
:1010500008A0A3F80AB04FF42C50988104E0714521
:101060001F8104D15D819E811A805C8001E05E81D8
:101070009D81A1F5A6401038DFD1A3F800C05A80A9
:10108000DBE71F815E8171459D81CDD0CEE72DE9E3
:10109000FF4F83185B1E1FFA83FA039B0B44A3F1D7
:1010A00001081FFA88F9FE4EDFF8F8E33346B788E7
:1010B0009C890D0A5B89A7F5C85C0EF1020BBCF197
:1010C000630C29D196F806C0BCF1010F24D03688F4
:1010D0001FFA88F7B61A301A86B2AEF80030330A13
:1010E0005846ABF80030F3B2ABF800303244521E31
:1010F000130AABF80030D2B2ABF80020AEF80040D3
:10110000ABF80050C9B2ABF80010390AABF80010C8
:10111000F9B20180BDE8FF8F0244521EC2F30728D6
:10112000039AA7F5A04C0A44521E060AC2F30722EE
:10113000BCF5A26C7746AEF8003017D0ABF8006073
:10114000C0B2ABF80000ABF800800AF0FF00ABF8CB
:1011500000003C80ABF80050C8B2ABF80000ABF820
:10116000002009F0FF00ABF80000D3E7DC46ABF845
:1011700000605E1C3E80C0B2ABF80000981C388056
:10118000ABF80080DB1C3B800AF0FF00ABF80000EE
:101190003C80ABF80050601C3880C8B2ACF800004E
:1011A000A01C3880ACF80020E41C3C8009F0FF0053
:1011B000ACF80000AEE770B5B949064600240888CF
:1011C0004D88214645432046FFF74CFDFFF734FD8F
:1011D000B448801C01E00680641CAC42FBD370BDA7
:1011E0002DE9F04F01219FB0080204F061FE0121BA
:1011F0004FF4B47004F065FE0120ADF83C001020FF
:101200008DF83F0003248DF83E400FA9A64804F056
:1012100070FC4CF23370ADF83C0018258DF83F504F
:101220008DF83E400FA9A14804F063FC4FF6807092
:10123000ADF83C008DF83F508DF83E400FA99C481A
:1012400004F057FC41F20100ADF83C008DF83F502E
:101250008DF83E400FA9974804F04BFC01201790F1
:1012600000200F21CDE918011A901B901C901D90B1
:101270001090CDE91104149015900621CDE90010CD
:1012800016901021CDE90201139004900902CDE9D6
:1012900008010690059007908900CDE90A010C909D
:1012A00017A80D9010A80E90684604F0C1F901210E
:1012B000062004F0F2FA322004F058F8794CD320DA
:1012C0002080FFF7A2FC764DA880FFF79EFC294600
:1012D0008880FFF79AFC4FF6FF77294607EA00203F
:1012E0008880FFF792FC294649F2413A898847F203
:1012F00089760843294645F21038888045F210590E
:1013000041F6631B504572D004202080FFF77DFC1E
:10131000A880FFF77AFCA880FFF777FC07EA002097
:10132000A880FFF772FCA9880843A0F50541A880B2
:10133000523958D0B0425AD0D4202080FFF765FCF3
:10134000A880FFF762FCA880FFF75FFC07EA002097
:10135000A880FFF75AFCA9880843A880404546D0DA
:1013600055214FF47040FFF759FCAA214FF20100BC
:10137000FFF754FC52214FF20200FFF74FFC082107
:101380004FF20300FFF74AFC01214FF20400FFF780
:1013900045FC4FF445402080FFF737FC07EA00206A
:1013A000A8804CF201502080FFF72FFCA988084349
:1013B000A880052003F0DAFFA988494517D0A120AD
:1013C0002080FFF722FCA880FFF71FFC07EA00201F
:1013D000A880FFF71AFCA9880843A0F5AE41A880B1
:1013E000613902D003E0AE8001E0A5F804B0A9881D
:1013F00031A007F0BDFCA8882A4DAD1C50457DD119
:10140000CF20208000202880C12028803020288004
:10141000ED2020806420288003202880122028804E
:1014200081202880E82020808520288010202880A6
:101430007A202880CB202080392028802C202880EA
:10144000002028803420288002202880F720208057
:1014500020202880EA202080002028802880C020AA
:1014600020801B202880C120208001202880C520CA
:101470002080302028802880C7202080B720288026
:1014800036202080482028803A202080552028803F
:10149000B1202080002028801A202880B62013E068
:1014A00050010020FE07006C000C014000140140B8
:1014B0000018014000200140204C43442049443A98
:1014C00025780D0A0000000020800A202880A22034
:1014D0002880F220208000202880262020800120E3
:1014E0002880E02020800F2028802A2028802820A3
:1014F0002880082028800E20288000E046E0082070
:10150000288054202880A9202880432028800A2071
:1015100028800F202880002028802880288028808C
:10152000E120208000202880152028801720288096
:101530000720288011202880062028802B20288042
:10154000562028803C2028800520288010202880D4
:101550000F2028803F20288028800F2028802B20E3
:101560002080002028802880012028803F2028809B
:101570002A2020800020288028802880EF202880B2
:1015800011202080782003F0F1FE89E0B0427DD167
:1015900011202080782003F0E9FE362020800020F2
:1015A00028803A20208005202880B22020800C202E
:1015B0002880288000202880332028802880B72099
:1015C000208035202880BB20208032202880C02029
:1015D00020800C202880C220208001202880C32069
:1015E000208010202880C420208020202880C62031
:1015F00020800F202880D0202080A4202880A120B7
:101600002880E0202080D020288000202880022010
:101610002880072028800A2028802820288032203F
:1016200028804420288042202880062028800E2000
:101630002880122028801420288017202880E1206C
:101640002080D020288000202880022028800720A9
:1016500028800A20288028202880312028805420B3
:101660002880472028800E2028801C2028801720D2
:1016700028801B2028801E2028802A2020800020EF
:10168000288028802880EF20288000E00BE02B2095
:101690002080002028802880012028803F2028806A
:1016A000292001F02EBC40457ED1ED202080012074
:1016B0002880FE202880EE202080DE202880212027
:1016C0002880F120208001202880DF202080102029
:1016D0002880C42020808F202880C62020800020E1
:1016E0002880E220288028802880BF202080AA200F
:1016F0002880B02020800D202880002028800D2008
:10170000288000202880112028800020288019208F
:1017100028800020288021202880002028802D205B
:101720002880002028803D202880002028805D20FF
:101730002880002028805D20288000202880B1207B
:10174000208080202880002028808B202880002076
:1017500028809620288000202880B2202080002029
:1017600028802880022028800020288003202880CC
:1017700000202880B3202080002028802880288016
:101780002880288028802880288028802880288019
:101790002880288028802880288028802880288009
:1017A00028802880288000E0FEE328802880B4205C
:1017B00020808B20288000202880962028800020F0
:1017C0002880A120288000202880B52020800220A9
:1017D00028800020288003202880002028800420E2
:1017E000288000202880B6202080002028802880A3
:1017F000B72020800020288028803F2028800020DB
:1018000028805E20288000202880642028800020F6
:1018100028808C20288000202880AC202880002070
:101820002880DC202880002028807020288000204C
:1018300028809020288000202880EB20288000200D
:101840002880DC20288000202880B82020800020EC
:101850002880288028802880288028802880288048
:10186000BA202080242028800020288028802880FA
:10187000C12020802020288000202880542028801B
:1018800000202880FF20288000202880C22020807F
:101890000A2028800020288004202880002028801A
:1018A000C32020803C202880002028803A202880E7
:1018B0000020288039202880002028803720288098
:1018C000002028803C202880002028803620288086
:1018D0000020288032202880002028802F20288087
:1018E000002028802C202880002028802920288083
:1018F000002028802620288000202880242028807E
:101900000020288024202880002028802320288070
:10191000002028803C202880002028803620288035
:101920000020288032202880002028802F20288036
:10193000002028802C202880002028802920288032
:10194000002028802620288000202880242028802D
:101950000020288024202880002028802320288020
:1019600000202880C4202080622028800020288039
:1019700005202880002028808420288000202880BE
:10198000F02028800020288018202880002028802F
:10199000A42028800020288018202880002028806B
:1019A00050202880002028800C20288000202880BB
:1019B000172028800020288095202880002028805B
:1019C000F320288000202880E6202880002028801E
:1019D000C5202080322028800020288044202880B4
:1019E00000202880652028800020288076202880FC
:1019F000002028808820288000202880C620208081
:101A0000202028800020288017202880002028807F
:101A10000120288000202880C720208000202880E6
:101A2000288028802880C8202080002028802880C6
:101A300028802880C92020800020288028802880B5
:101A40002880288028802880288028802880288056
:101A500028802880288028802880E0202080162068
:101A60002880002028801C20288000202880212019
:101A700028800020288036202880002028804620CA
:101A80002880002028805220288000202880642080
:101A90002880002028807A202880002028808B2021
:101AA0002880002028809920288000202880A820D5
:101AB000288000202880B920288000202880C42089
:101AC000288000202880CA20288000202880D2205A
:101AD000288000202880D920288000202880E0202D
:101AE000288000202880F320288000202880E12002
:101AF000208016202880002028801C20288000209C
:101B0000288022202880002028803620288000205D
:101B1000288045202880002028805220288000200E
:101B2000288064202880002028807A2028800020B7
:101B300028808B2028800020288099202880002061
:101B40002880A820288000202880B9202880002014
:101B50002880C420288000202880CA2028800020D7
:101B60002880D220288000202880D82028800020AB
:101B70002880E020288000202880F3202880002072
:101B80002880E220208005202880002028800B204B
:101B90002880002028801B202880002028803420D6
:101BA00028800020288044202880002028804F2082
:101BB000288000202880612028800020288079202B
:101BC00028800020288088202880002028809720D6
:101BD000288000202880A620288000202880B72088
:101BE000288000202880C220288000202880C7204C
:101BF000288000202880D120288000202880D6201E
:101C0000288000202880DD20288000202880F320E4
:101C1000288000202880E3202080052028800020C4
:101C200028800A202880002028801C20288000206E
:101C3000288033202880002028804420288000200D
:101C400028805020288000202880622028800020C2
:101C50002880782028800020288088202880002064
:101C600028809720288000202880A6202880002017
:101C70002880B720288000202880C22028800020CB
:101C80002880C720288000202880D120288000209C
:101C90002880D520288000202880DD202880002072
:101CA0002880F320288000202880E4202080012044
:101CB0002880002028800120288000202880022001
:101CC0002880002028802A202880002028803C208E
:101CD0002880002028804B202880002028805D203C
:101CE00028800020288074202880002028808420DC
:101CF0002880002028809320288000202880A2208F
:101D0000288000202880B320288000202880BE2042
:101D1000288000202880C420288000202880CD2012
:101D2000288000202880D320288000202880DD20E3
:101D3000288000202880F320288000202880E520AB
:101D40002080002028802880288028800220288069
:101D50000020288029202880002028803C202880FE
:101D6000002028804B202880002028805D202880AB
:101D7000002028807420288000202880842028804B
:101D8000002028809320288000202880A2202880FE
:101D900000202880B320288000202880BE202880B2
:101DA00000202880C420288000202880CD20288082
:101DB00000202880D320288000202880DC20288054
:101DC00000202880F320288000202880E620208022
:101DD000112028800020288034202880002028809E
:101DE0005620288000202880762028800020288007
:101DF00077202880002028806620288000202880E6
:101E00008820288000202880992028800020288091
:101E1000BB2028800020288099202880002028804E
:101E200066202880002028805520288000202880D7
:101E300055202880002028804520288000202880E8
:101E400043202880002028804420288000202880EB
:101E5000E7202080322028800020288055202880FC
:101E60000020288076202880002028806620288076
:101E70000020288067202880002028806720288074
:101E80000020288087202880002028809920288012
:101E900000202880BB2028800020288099202880CE
:101EA0000020288077202880002028804420288057
:101EB0000020288056202880002028802320288089
:101EC000002028803320288000202880452028807A
:101ED00000202880E8202080002028802880992069
:101EE00028800020288087202880002028808820C3
:101EF00028800020288077202880002028806620E5
:101F00002880002028808820288000202880AA207F
:101F1000288000202880BB2028800020288099204D
:101F200028800020288066202880002028805520D6
:101F300028800020288055202880002028804420E8
:101F400028800020288044202880002028805520D8
:101F5000288000202880E9202080AA2028800020D6
:101F60002880288028802080AA202880CF202080D8
:101F700000202880288028802880288028802880A9
:101F80002880288028802880288028802880288011
:101F900028802880F0202080002028805020288061
:101FA00000202880288000E02BE02880F32020807B
:101FB00000202880F92020800620288010202880FA
:101FC00029202880002028803A2020805520288041
:101FD00011202080642003F0C9F9292020803520B9
:101FE00020800020288051202080FF20288053203E
:101FF00020802C20288055202080822028802C20A2
:10200000FEE348457DD14FF4704855214046FEF728
:1020100005FE4FF20103AA211846FEF7FFFD4FF21D
:10202000020552212846FEF7F9FD6E1C08213046B4
:10203000FEF7F4FD4FF2040C01216046FEF7EEFDC1
:102040000D214FF43040FEF7E9FD0D214BF2010068
:10205000FEF7E4FD0D214BF20200FEF7DFFD4FF429
:10206000364934214846FEF7D9FD34214BF2016050
:10207000FEF7D4FD34214BF20260FEF7CFFD4FF4A2
:10208000314A0D215046FEF7C9FD4BF2011B0D21CF
:102090005846FEF7C3FD0D214BF20210FEF7BEFDC0
:1020A00034214FF43740FEF7B9FD34214BF2017073
:1020B000FEF7B4FD34214BF20270FEF7AFFD0021B4
:1020C0004FF43240FEF7AAFD00214BF20120FEF74B
:1020D000A5FD00214BF20220FEF7A0FD24214FF4C4
:1020E0003840FEF79BFD24214BF60100FEF796FDDC
:1020F00024214BF60200FEF791FD01214FF43F40F1
:1021000000E0FCE3FEF78AFD0F214FF43340FEF7B9
:1021100085FD0F214BF20130FEF780FD0F214BF2C0
:102120000230FEF77BFD34214FF43940FEF776FD97
:1021300034214BF60110FEF771FD34214BF60210ED
:10214000FEF76CFD08214FF43540FEF767FD0821CE
:102150004BF20150FEF762FD08214BF20250FEF7F0
:102160005DFD03214FF44240FEF758FD24214FF45A
:102170003A40FEF753FD24214BF60120FEF74EFDB9
:1021800024214BF60220FEF749FD00214FF43C408C
:10219000FEF744FD78214BF60140FEF73FFD00219C
:1021A0004BF60240FEF73AFD00214FF43D40FEF7AA
:1021B00035FD78214BF60150FEF730FD00214BF63E
:1021C0000250FEF72BFD00214FF43E40FEF726FDA6
:1021D00064214BF60160FEF721FD00214FF45140D0
:1021E000FEF71CFD33214DF20110FEF717FD002113
:1021F0004DF20210FEF712FD34214DF20310FEF7EE
:102200000DFD00214DF20410FEF708FD3A214DF2BC
:102210000510FEF703FD00214DF20610FEF7FEFC4F
:102220004A214DF20710FEF7F9FC00214DF208108B
:10223000FEF7F4FC5C214DF20910FEF7EFFC0021E3
:102240004DF20A10FEF7EAFC81214DF20B10FEF769
:10225000E5FC00214DF20C10FEF7E0FCA6214DF24A
:102260000D10FEF7DBFC00214DF20E10FEF7D6FC40
:10227000E5214DF20F10FEF7D1FC01214DF21010B7
:10228000FEF7CCFC13214DF21110FEF7C7FC012123
:102290004DF21210FEF7C2FC54214DF21310FEF75E
:1022A000BDFC01214DF21410FEF7B8FC82214DF265
:1022B0001510FEF7B3FC01214DF21610FEF7AEFC2F
:1022C000CA214DF21710FEF7A9FC02214DF2181099
:1022D000FEF7A4FC00214DF21910FEF79FFC02212D
:1022E0004DF21A10FEF79AFC01214DF21B10FEF779
:1022F00095FC02214DF21C10FEF790FC34214DF2AA
:102300001D10FEF78BFC02214DF21E10FEF786FC1D
:1023100067214DF21F10FEF781FC02214DF22010C3
:10232000FEF77CFC84214DF22110FEF777FC0221A0
:102330004DF22210FEF772FCA4214DF22310FEF79D
:102340006DFC02214DF22410FEF768FCB7214DF21E
:102350002510FEF763FC02214DF22610FEF75EFC0D
:10236000CF214DF22710FEF759FC02214DF2281023
:10237000FEF754FCDE214DF22910FEF74FFC02213E
:102380004DF22A10FEF74AFCF2214DF22B10FEF717
:1023900045FC02214DF22C10FEF740FCFE214DF2CF
:1023A0002D10FEF73BFC03214DF22E10FEF736FCFC
:1023B00010214DF22F10FEF731FC03214DF23010A9
:1023C000FEF72CFC33214DF23110FEF727FC0321E0
:1023D0004DF23210FEF722FC6D214DF23310FEF764
:1023E0001DFC00214FF45240FEF718FC33214DF242
:1023F0000120FEF713FC00214DF20220FEF70EFC37
:1024000034214DF20320FEF709FC00214DF2042097
:10241000FEF704FC3A214DF20520FEF7FFFB0021F8
:102420004DF20620FEF7FAFB4A214DF20720FEF797
:10243000F5FB00214DF20820FEF7F0FB5C214DF288
:102440000920FEF7EBFB00214DF20A20FEF7E6FB28
:1024500081214DF20B20FEF7E1FB00214DF20C2013
:10246000FEF7DCFBA6214DF20D20FEF7D7FB002185
:102470004DF20E20FEF7D2FBE5214DF20F20FEF7C4
:10248000CDFB01214DF21020FEF7C8FB13214DF2C8
:102490001120FEF7C3FB01214DF21220FEF7BEFB17
:1024A00054214DF21320FEF7B9FB01214DF2142007
:1024B000FEF7B4FB82214DF21520FEF7AFFB0121A0
:1024C0004DF21620FEF7AAFBCA214DF21720FEF7A7
:1024D000A5FB02214DF21820FEF7A0FB00214DF2D2
:1024E0001920FEF79BFB02214DF21A20FEF796FB06
:1024F00001214DF21B20FEF791FB02214DF21C2021
:10250000FEF78CFB34214DF21D20FEF787FB0221E4
:102510004DF21E20FEF782FB67214DF21F20FEF7D1
:102520007DFB02214DF22020FEF778FB84214DF245
:102530002120FEF773FB02214DF22220FEF76EFBF5
:10254000A4214DF22320FEF769FB02214DF2242045
:10255000FEF764FBB7214DF22520FEF75FFB022159
:102560004DF22620FEF75AFBCF214DF22720FEF731
:1025700055FB02214DF22820FEF750FBDE214DF2E3
:102580002920FEF74BFB02214DF22A20FEF746FBE5
:10259000F2214DF22B20FEF741FB02214DF22C20BF
:1025A000FEF73CFBFE214DF22D20FEF737FB032109
:1025B0004DF22E20FEF732FB10214DF22F20FEF7B8
:1025C0002DFB03214DF23020FEF728FB33214DF285
:1025D0003120FEF723FB03214DF23220FEF71EFBD4
:1025E0006D214DF23320FEF719FB00214FF45340CB
:1025F000FEF714FB33214DF20130FEF70FFB0021F3
:102600004DF20230FEF70AFB34214DF20330FEF7A3
:1026100005FB00214DF20430FEF700FB3A214DF29C
:102620000530FEF7FBFA00214DF20630FEF7F6FA10
:102630004A214DF20730FEF7F1FA00214DF2083041
:10264000FEF7ECFA5C214DF20930FEF7E7FA0021C3
:102650004DF20A30FEF7E2FA81214DF20B30FEF71F
:10266000DDFA00214DF20C30FEF7D8FAA6214DF22A
:102670000D30FEF7D3FA00214DF20E30FEF7CEFA00
:10268000E5214DF20F30FEF7C9FA01214DF210306D
:10269000FEF7C4FA13214DF21130FEF7BFFA012103
:1026A0004DF21230FEF7BAFA54214DF21330FEF714
:1026B000B5FA01214DF21430FEF7B0FA82214DF245
:1026C0001530FEF7ABFA01214DF21630FEF7A6FAEF
:1026D000CA214DF21730FEF7A1FA02214DF218304F
:1026E000FEF79CFA00214DF21930FEF797FA02210D
:1026F0004DF21A30FEF792FA01214DF21B30FEF72F
:102700008DFA02214DF21C30FEF788FA34214DF289
:102710001D30FEF783FA02214DF21E30FEF77EFADD
:1027200067214DF21F30FEF779FA02214DF2203079
:10273000FEF774FA84214DF22130FEF76FFA022180
:102740004DF22230FEF76AFAA4214DF22330FEF753
:1027500065FA02214DF22430FEF760FAB7214DF2FE
:102760002530FEF75BFA02214DF22630FEF756FACD
:10277000CF214DF22730FEF751FA02214DF22830D9
:10278000FEF74CFADE214DF22930FEF747FA02211E
:102790004DF22A30FEF742FAF2214DF22B30FEF7CD
:1027A0003DFA02214DF22C30FEF738FAFE214DF2AF
:1027B0002D30FEF733FA03214DF22E30FEF72EFABC
:1027C00010214DF22F30FEF729FA03214DF230305F
:1027D000FEF724FA33214DF23130FEF71FFA0321C0
:1027E0004DF23230FEF71AFA6D214DF23330FEF71A
:1027F00015FA00214FF45440FEF710FA332100E09F
:102800007FE34DF20140FEF709FA00214DF202404C
:10281000FEF704FA34214DF20340FEF7FFF90021E0
:102820004DF20440FEF7FAF93A214DF20540FEF769
:10283000F5F900214DF20640FEF7F0F94A214DF27C
:102840000740FEF7EBF900214DF20840FEF7E6F9EC
:102850005C214DF20940FEF7E1F900214DF20A40FA
:10286000FEF7DCF981214DF20B40FEF7D7F900218C
:102870004DF20C40FEF7D2F9A6214DF20D40FEF7C5
:10288000CDF900214DF20E40FEF7C8F9E5214DF2D9
:102890000F40FEF7C3F901214DF21040FEF7BEF9DB
:1028A00013214DF21140FEF7B9F901214DF212400A
:1028B000FEF7B4F954214DF21340FEF7AFF90121B0
:1028C0004DF21440FEF7AAF982214DF21540FEF7B1
:1028D000A5F901214DF21640FEF7A0F9CA214DF2EB
:1028E0001740FEF79BF902214DF21840FEF796F9CA
:1028F00000214DF21940FEF791F9022100E002E3B8
:102900004DF21A40FEF78AF901214DF21B40FEF705
:1029100085F902214DF21C40FEF780F934214DF279
:102920001D40FEF77BF902214DF21E40FEF776F9BD
:1029300067214DF21F40FEF771F902214DF2204050
:10294000FEF76CF984214DF22140FEF767F9022170
:102950004DF22240FEF762F9A4214DF22340FEF72A
:102960005DF902214DF22440FEF758F9B7214DF2EE
:102970002540FEF753F902214DF22640FEF74EF9AD
:10298000CF214DF22740FEF749F902214DF22840B0
:10299000FEF744F9DE214DF22940FEF73FF902210E
:1029A0004DF22A40FEF73AF9F2214DF22B40FEF7A4
:1029B00035F902214DF22C40FEF730F9FE214DF29F
:1029C0002D40FEF72BF903214DF22E40FEF726F99C
:1029D00010214DF22F40FEF721F903214DF2304036
:1029E000FEF71CF933214DF23140FEF717F90321B0
:1029F0004DF23240FEF712F96D214DF23340FEF7F1
:102A00000DF900214FF45540FEF708F933214DF23E
:102A10000150FEF703F900214DF20250FEF7FEF8D7
:102A200034214DF20350FEF7F9F800214DF2045025
:102A3000FEF7F4F83A214DF20550FEF7EFF80021C9
:102A40004DF20650FEF7EAF84A214DF20750FEF724
:102A5000E5F800214DF20850FEF7E0F85C214DF258
:102A60000950FEF7DBF800214DF20A50FEF7D6F8C8
:102A700081214DF20B50FEF7D1F800214DF20C50A0
:102A8000FEF7CCF8A6214DF20D50FEF7C7F8002155
:102A90004DF20E50FEF7C2F8E5214DF20F50FEF751
:102AA000BDF801214DF21050FEF7B8F813214DF298
:102AB0001150FEF7B3F801214DF21250FEF7AEF8B7
:102AC00054214DF21350FEF7A9F801214DF2145094
:102AD000FEF7A4F882214DF21550FEF79FF8012170
:102AE0004DF21650FEF79AF8CA214DF21750FEF734
:102AF00095F802214DF21850FEF790F800214DF2A2
:102B00001950FEF78BF802214DF21A50FEF786F8A5
:102B100001214DF21B50FEF781F802214DF21C50AD
:102B2000FEF77CF834214DF21D50FEF777F80221B4
:102B30004DF21E50FEF772F867214DF21F50FEF75E
:102B40006DF802214DF22050FEF768F884214DF215
:102B50002150FEF763F802214DF22250FEF75EF895
:102B6000A4214DF22350FEF759F802214DF22450D2
:102B7000FEF754F8B7214DF22550FEF74FF8022129
:102B80004DF22650FEF74AF8CF214DF22750FEF7BE
:102B900045F802214DF22850FEF740F8DE214DF2B3
:102BA0002950FEF73BF802214DF22A50FEF736F885
:102BB000F2214DF22B50FEF731F802214DF22C504C
:102BC000FEF72CF8FE214DF22D50FEF727F80321D9
:102BD0004DF22E50FEF722F810214DF22F50FEF745
:102BE0001DF803214DF23050FEF718F833214DF255
:102BF0003150FEF713F803214DF23250FEF70EF874
:102C00006D214DF23350FEF709F800214FF4564084
:102C1000FEF704F833214DF20160FDF7FFFF0021BC
:102C20004DF20260FDF7FAFF34214DF20360FDF72B
:102C3000F5FF00214DF20460FDF7F0FF3A214DF25F
:102C40000560FDF7EBFF00214DF20660FDF7E6FFA2
:102C50004A214DF20760FDF7E1FF00214DF20860C7
:102C6000FDF7DCFF5C214DF20960FDF7D7FF002185
:102C70004DF20A60FDF7D2FF81214DF20B60FDF7A6
:102C8000CDFF00214DF20C60FDF7C8FFA6214DF2EB
:102C90000D60FDF7C3FF00214DF20E60FDF7BEFF92
:102CA000E5214DF20F60FDF7B9FF01214DF21060F3
:102CB000FDF7B4FF13214DF21160FDF7AFFF0121C5
:102CC0004DF21260FDF7AAFF54214DF21360FDF79B
:102CD000A5FF01214DF21460FDF7A0FF82214DF206
:102CE0001560FDF79BFF01214DF21660FDF796FF81
:102CF000CA214DF21760FDF791FF02214DF21860D5
:102D0000FDF78CFF00214DF21960FDF787FF0221CE
:102D10004DF21A60FDF782FF01214DF21B60FDF7B5
:102D20007DFF02214DF21C60FDF778FF34214DF24A
:102D30001D60FDF773FF02214DF21E60FDF76EFF6F
:102D400067214DF21F60FDF769FF02214DF22060FF
:102D5000FDF764FF84214DF22160FDF75FFF022142
:102D60004DF22260FDF75AFFA4214DF22360FDF7DA
:102D700055FF02214DF22460FDF750FFB7214DF2BF
:102D80002560FDF74BFF02214DF22660FDF746FF5F
:102D9000CF214DF22760FDF741FF02214DF228605F
:102DA000FDF73CFFDE214DF22960FDF737FF0221E0
:102DB0004DF22A60FDF732FFF2214DF22B60FDF754
:102DC0002DFF02214DF22C60FDF728FFFE214DF270
:102DD0002D60FDF723FF03214DF22E60FDF71EFF4E
:102DE00010214DF22F60FDF719FF03214DF23060E5
:102DF000FDF714FF33214DF23160FDF70FFF032182
:102E00004DF23260FDF70AFF6D214DF23360FDF7A0
:102E100005FF55214046FDF701FFAA211846FDF7A1
:102E2000FDFE52212846FDF7F9FE08213046FDF748
:102E3000F5FE00216046FDF7F1FECC215046FDF77E
:102E4000EDFE00215846FDF7E9FE05214846FDF755
:102E5000E5FE70214FF43740FDF7E0FE70214BF2A4
:102E60000170FDF7DBFE01214FF43840FDF7D6FE7F
:102E700003214BF60100FDF7D1FE03214BF60200C2
:102E8000FDF7CCFE03214BF60300FDF7C7FE022140
:102E90004FF43C40FDF7C2FE00214BF60140FDF728
:102EA000BDFE00214BF60240FDF7B8FED0214FF4E5
:102EB0004940FDF7B3FE02214CF60110FDF7AEFECE
:102EC00050214CF60210FDF7A9FE50214CF60310DC
:102ED000FDF7A4FE50214CF60410FDF79FFE0021E3
:102EE0004FF45450FDF79AFE55214FF46850FDF70A
:102EF00095FE4FF488502080782002F01FFA4FF49E
:102F0000245020807BE0584579D1E22020801D208C
:102F100028800220288004202880642002F00EFAF5
:102F2000E0202080012028800A2002F01FFAE02003
:102F30002080032028800C2002F018FA0120208035
:102F40000A2002F013FAE62020802F202880FF209C
:102F500028802880B0202080202028800020288001
:102F60000320288040F21F3028800120288040F272
:102F7000DF10288000202880B420208004202880B2
:102F800040F21F402880002028802E20288000202A
:102F90002880288028802880B62020800220288051
:102FA0004FF40370288000202880172028801520E7
:102FB0002880002028802880F0202080032028807E
:102FC00029202080D020208000202880BE20208042
:102FD00005202880FE2028800120288000202880CD
:102FE00028802880B8202080032028800120288085
:102FF000BA202080012028806420FDF7CDFF00202A
:10300000FDF7E3FFF7490120C1F880013846FEF7DC
:10301000D2F81FB0BDE8F08F2DE9F0438146A2EB56
:103020000900401C1F460C4685B2DFF8BC83079E92
:103030000FE021464846FDF715FEFDF7FDFD002097
:10304000414602E00E80401C80B2A842FAD3641CC4
:10305000A4B2BC42EDD9BDE8F0832DE9F047824629
:10306000A2EB0A00401C0E4685B2981B401C87B29A
:103070000024DFF87493DDF8208014E0301981B269
:103080005046FDF7EFFDFDF7D7FD0020494606E06D
:1030900004FB050338F813200A80401C80B2A842C4
:1030A000F6D3641CA4B2BC42E8D3BDE8F0872DE996
:1030B000FE4F0026A2EB000882465F1A701E3546BE
:1030C0008946B8F1000F02DD4FF0010102E003D1A3
:1030D0004FF00001019102E0C8F100080190002FBB
:1030E00002DD4FF0010002E003D14FF0000000903C
:1030F00002E0C7F1000700904046B84501DD0446F4
:1031000000E03C46601C4FF0000B029015E01FFAF7
:1031100089F11FFA8AF0FDF7E2FE46443D44A642DB
:1031200002DD0199361B8A44A54202DD00992D1B60
:1031300089440BF101001FFA80FB02998B45E6DD03
:10314000BDE8FE8FF0B51C4615460E4607460B46F9
:10315000FFF7ADFF3A46234631461046FFF7A7FF7B
:1031600023462A4619463846FFF7A1FF2A4623463A
:103170003146BDE8F040104699E72DE9FC4F804606
:103180000024154603200F46A0EB450649E0781BB6
:1031900081B208EB040A01901FFA8AF0FDF79FFE46
:1031A000381B81B208EB050900901FFA89F0FDF782
:1031B00096FE07EB040B1FFA8BF11FFA89F0FDF75F
:1031C0008EFE07EB05091FFA89F11FFA8AF0FDF759
:1031D00086FEA8EB040A1FFA89F11FFA8AF0FDF7B0
:1031E0007EFEA8EB05091FFA8BF11FFA89F0FDF7A7
:1031F00076FE019881B21FFA8AF0FDF770FE009802
:1032000081B21FFA89F0FDF76AFE641C002E03DA12
:1032100006EB8406B61D04E0601B06EB80066D1EFF
:103220000A36AC42B3DDBDE8FC8F2DE9F84F82468B
:103230001F460C468B46580700D0012000EBD700F4
:1032400079084843203AC0B202F0FF0900260090F6
:1032500041E00C2F10D0102F12D0182F3ED163490F
:1032600009EBC90001EB80004FF00008855D2806DE
:103270000AD55F4842880BE009EB49005D49F1E758
:103280005D4901EB0910EFE70A9828B95848828890
:1032900021465046FDF72EFE6806050E5748641C71
:1032A000A4B24088A04219D9A4EB0B00B84209D1BE
:1032B0000AF101001FFA80FA50485C460188514526
:1032C0000CD906E008F1010000F0FF08B8F1080F82
:1032D000CDD3761CF6B200988642BAD3BDE8F88FFB
:1032E0000346012000E05843491EC9B2FBD2704793
:1032F0002DE9FF4F81B00027DDF838B01D4692461A
:1033000080463C46B9464FEA5B0627E0281B401E34
:10331000C1B20A20FFF7E4FFBAFBF0F00A21B0FBCC
:10332000F1F201FB120027B9691E8C4201DA48B1A3
:1033300001273030C2B206FB048080B25B46CDF874
:10334000009006E006FB048080B25B462022CDF8A8
:1033500000900299FFF769FF641CE4B2AC42D5D338
:1033600005B057E62DE9FF4F81B08046DDF83CA05F
:103370000E984FF000091F4693464C460AF001058F
:1033800046082BE0381B401EC1B20A20FFF7A8FFF9
:10339000BBFBF0F00A21B0FBF1F201FB1200B9F126
:1033A000000F05D1791E8C4202DA48B14FF00109B5
:1033B0003030C2B206FB048080B200950E9B08E05C
:1033C0005FEA0A6006FB04800E9B80B2009517D569
:1033D00030220299FFF729FF641CE4B2BC42D1D32A
:1033E000BEE70000008021420008006CB2AD00087A
:1033F0006C0000204EA30008C2A700085001002066
:103400002022E6E72DE9F84F044600F0FF081019E6
:103410000D46DDE90A761FFA80FA58191FFA80F97D
:103420004FF0000B11E0544502D3E819444685B231
:103430004D450FD23B4629462046CDF800B0FFF758
:10344000F4FE04EB570084B2761C3278A2F120001F
:103450005E28E8D942E72DE9FF4F834681B09846C0
:103460000C468946580700D0012000EBD80000FB2D
:1034700008F0C0B20027DFF8F8A3009027E0B8F109
:10348000100F27D1FB490398002501EB0010C65D02
:10349000300602D5BAF8022001E0BAF8042021462D
:1034A0005846FDF727FD641C7006E4B2060EA4EB37
:1034B0000901414505D10BF101004C4600F0FF0B1D
:1034C00003E06D1CEDB2082DE2D37F1CFFB2009823
:1034D0008742D4D344E72DE9FF4F834681B0984615
:1034E0000C468946580700D0012000EBD80000FBAD
:1034F00008F0C0B20027DFF878A3009028E0B8F108
:10350000100F28D1DB490398C03101EB00100025D2
:10351000C65D300602D5BAF8022001E0BAF80420F0
:1035200021465846FDF7E6FC641C7006E4B2060E20
:10353000A4EB0901414505D10BF101004C4600F017
:10354000FF0B03E06D1CEDB2082DE2D37F1CFFB230
:1035500000988742D3D303E72DE9FE4F0D46DFF8ED
:1035600010834FF478410746A8F80210C8F80820E5
:103570004FF6FF7005F1960607F1F0040090B3B224
:10358000A2B229463846FFF747FDB3B2A2B2294698
:103590003846FFF7D7FD07F1A00082B25038B3B22A
:1035A00080B22946FFF7CEFD05F13C0083B21E38FC
:1035B00081B2A2B23846FFF7C5FD05F1780083B2AB
:1035C0001E3881B2A2B23846FFF7BCFD1F2100248D
:1035D000A8F802100320C146804601E0012C26D045
:1035E0004046B4FBF0F1B4FBF8F208FB1240502265
:1035F0000092C1EB0111D9F8082005EB410100EB65
:103600008000C91D07EB001089B280B24E4652F807
:103610002420102301F03FFEB1464FF0000A4FF086
:10362000100B4646641CA4B20F2CD7D388E5B4FB1C
:10363000F6F0C0EB001005EB4000C01D81B2B4FBFA
:10364000F6F0D9F808C006FB1040DCF804C000EB27
:10365000800007EB0010CDE900CB801C80B21E2358
:103660005022CDF808A001F0CDFDDBE72DE9F843AD
:10367000804603200F46B2FBF0F1B2FBF0F6144691
:1036800000FB1145102A34D823B1012C31D04FF45E
:10369000FC6003E0012C2CD04FF6FF700090C6EBCD
:1036A000061007EB400000F11C018BB205EB850210
:1036B00008EB021101F14E02401C1FFA80FC491C6C
:1036C00088B292B26146FFF7A7FC5020009068488C
:1036D00005EB8503806850F82420C6EB061007EB45
:1036E0004000C01D81B208EB031080B2102301F02E
:1036F000D2FDBDE8F8832DE9F05F5F4E8A460546AE
:10370000002471682046884796F82000DFF860B1F1
:10371000000640D5B3890022B146C2EB02160AEB7F
:103720004608B9F81600002108F11E0C01EB8106CD
:1037300005EB061606F15007BB420BD2B34209D97E
:10374000604507D2404505D902EB42000844401CC1
:10375000C4B203E0491C89B20329E7D3B4B19BF892
:1037600000005E46A04201D1002421E0401EC2B20A
:10377000002351462846FFF779FF601EC2B234701D
:10378000012351462846FFF771FF11E0521C92B207
:10379000052AC2D30CE09BF800005E4640B1401EF3
:1037A000C2B2002351462846FFF760FF0020307068
:1037B0002046BDE8F09F2DE9FF4730A000240068B7
:1037C000274625464FF0200902AE4FF010084FF46F
:1037D000827A0390AA210020FFF78DFF00287BD07A
:1037E000011F092907D2632D05D205EB850100EBE6
:1037F0004101C91E8DB2042816D0052816D006280E
:1038000016D0072816D0082816D0092816D00A285E
:1038100016D00B2816D00C2818D00D2818D00E283A
:1038200030D00F2838D057E031200CE032200AE0A9
:10383000332008E0342006E0352004E0362002E0A2
:10384000372000E038203055641C45E03920FAE785
:103850000A20B5FBF0F506F80490641E002C00DC8D
:103860000024214606A005F083FA002734E000007A
:103870006C0000200EBB00088800002031323300AD
:1038800025640000632D27D205EB85004FF6FF71FC
:1038900001EA40053020D6E7002003A9325C0B5C2A
:1038A0009A4201D17F1CFFB2401CC0B20328F5D35D
:1038B000032F0CD014A005F05BFA8DF808908DF85A
:1038C00009908DF80A90002004B0BDE8F08711A09F
:1038D00005F04EFA0120F7E744B1012C08D0022C84
:1038E00010D0032C7FF476AF0DA102E00DA100E013
:1038F0000DA1CDE9008110235246B1216120FFF7CF
:1039000081FD67E709A1F4E7C3DCC2EBB4EDCEF3B8
:1039100000000000C3DCC2EBD5FDC8B7000000000A
:103920002A2A2A00202020002A2020002A2A2000DB
:1039300038B50121482002F0C4FA2024ADF8004037
:1039400010208DF8030003200B4D8DF8020069460E
:10395000284602F0CEF82021284602F034F9ADF8CE
:103960000040064C6946204602F0C3F8202120465C
:1039700002F029F938BD0000000C01400018014098
:10398000052001F0DBBC38B50121882002F099FA4E
:103990000220ADF8000010208DF8030003208F4CAA
:1039A0008DF802006946204602F0A3F80221204665
:1039B00002F009F98A4D6415ADF8004069462846C1
:1039C00002F097F82146284602F0FDF838BD70B5A0
:1039D0008348001D016821F0F0010160016841F099
:1039E000300101607F4E0120C6F8A4017E4DC5F86C
:1039F00084011E2005F5C27506F5D27601F09EFC05
:103A000000243460052001F099FC2C6070BD70B575
:103A10007348001D016821F0F0010160016841F068
:103A20003001016070480125C0F884511E2001F06A
:103A300085FC6C4C0020C4F8A401052004F5D27468
:103A400001F07CFC256070BD70B565480024001D48
:103A5000016821F0F0010160016841F0800101601E
:103A6000604D0120C5F8A4015F4EC6F8840107E04F
:103A7000641CE4B2FA2C03D9FFF7C9FF012070BD22
:103A8000052001F05BFCD5F824010028F0D1C6F830
:103A9000840170BD70B5544C0025C4F88451504861
:103AA000001D016821F0F0010160016841F0300162
:103AB0000160052004F5C27401F040FC4948C0F8DB
:103AC000A451052001F03AFC01202060052001F0FE
:103AD00035FC256070BD70B5434C0026C4F8846188
:103AE0003F48001D016821F0F0010160016841F0CC
:103AF00030010160052004F5C27401F01FFC394853
:103B00000125C0F8A451052001F018FC256005200E
:103B100001F014FC266070BD2DE9F04705463048E1
:103B2000001D016821F0F0010160016841F03001E1
:103B300001602D4E0027C6F88471052001F0FEFBC0
:103B4000DFF8A08000244FF00109E909C8F8A411AA
:103B50006806050EC6F88491052001F0EFFBC6F853
:103B60008471052001F0EAFB641CE4B2082CECD35C
:103B7000BDE8F0872DE9F047824619480024001D72
:103B8000016821F0F0010160016841F080010160ED
:103B90001E2001F0D3FB0025134EDFF848902F467E
:103BA0004FF00108C6F88471052001F0C7FBC6F884
:103BB00084816006040ED9F8240108B1641CE4B2C3
:103BC0006D1CEDB2082DEDD3BAF1000F03D0FFF755
:103BD00061FF2046CCE7FFF77EFFFAE7000C0140CB
:103BE000001C014000802342008021422DE9F04169
:103BF00015460E4604460027FFF7E9FE7020FFF742
:103C00008BFFFFF721FFE0B2FFF786FFFFF71CFFF6
:103C1000002408E0305DFFF77FFFFFF715FF070086
:103C200003D1641CE4B2AC42F4D3FFF7F0FE384693
:103C3000BDE8F0812DE9F04115460F460446FFF737
:103C4000C6FE7020FFF768FFFFF7FEFEE0B2FFF749
:103C500063FFFFF7F9FEFFF7BAFE7120FFF75CFF85
:103C6000FFF7F2FE00246E1E09E0B44201D00120ED
:103C700000E00020FFF77EFF3855641CE4B2AC4240
:103C8000F3D3BDE8F041FFF7C2BE3EB5012180206D
:103C900002F017F94FF40060ADF8080010208DF81D
:103CA0000B000320CD4D8DF80A0002A9284601F033
:103CB00020FF0221284601F086FF2C15ADF80840B0
:103CC00048228DF80B2002A9284601F012FF214658
:103CD000284601F078FFFFF756FEC14D0024C5F8D5
:103CE000AC41142005F5D67501F040FB0120286099
:103CF000322001F03BFB8DF8004001226946002094
:103D0000FFF774FF01226946A420FFF76FFF16201A
:103D10008DF80000012269468020FFF767FF0C2024
:103D20008DF80000012269468820FFF75FFF02221C
:103D30006946A120FFF77EFF9DF80000302803D1DF
:103D40009DF8010003282AD00422694648F2401059
:103D500000F0ABF98DF804406946A2A005F008F820
:103D6000A348009948F24005C0F8021002208DF8DF
:103D7000000001226946284600F04AF901226946FE
:103D8000E81D00F092F90A2001F0F0FA8DF80040E9
:103D900001226946284600F03BF900203EBD43F26F
:103DA000030194A004F0E4FFF7E72DE9F14783B0A5
:103DB00000278F4D8DF804704FF00A0A6878904CF8
:103DC000401CC0B2B0FBFAF20AFB1201B8466870A0
:103DD00009B10A2870D286488AA1801C05F03EF9F4
:103DE0004FF0010203A908B30220FFF723FF9DF85B
:103DF0000C00010760D000F00F01287881425BD8E9
:103E0000FF228A40D14394F8209041F0C00184F809
:103E1000201004EB4000A1894181E18A81820420C5
:103E200001F0A4FA8DF80470774E85E048F24E1642
:103E3000304600F03AF99DF80C000106D7D52978F4
:103E400000F00F008842D2D88DF80470012201A939
:103E5000304600F0DDF8CAE794F8201001228240D5
:103E6000114264D0624867A1801C05F0F7F820B3C6
:103E700066489DF80410042230F811006946FFF7E7
:103E8000D9FE94F830009DF80010C0079DF801009D
:103E900001F00F0139D000EB01219DF8040004EB83
:103EA0004000C1829DF802209DF8031002F00F022D
:103EB00001EB022181813AE058E054489DF804105A
:103EC0000A30042230F81100694600F0EEF894F848
:103ED00030009DF80110C0079DF8000000EB0121A3
:103EE0009DF8040004EB400005D081819DF802108C
:103EF0009DF8032018E0C1829DF802109DF8032070
:103F000001EB02213288511AD4E700EB01203188FD
:103F1000091A9DF8040004EB400081819DF80220FD
:103F20009DF8031002F00F0201EB0221C1829DF8FF
:103F30000400401C8DF804009DF804002978884294
:103F40008AD3A08931884FF00108884203D8E08ADB
:103F50007188884209D99DF80C0000F00F000128F3
:103F600012D9E089A081208BE0826F70204825A1C2
:103F7000801C05F073F800289DF80C004FF6FF71C7
:103F80000FD0C00624D01AE0287804EB4000418905
:103F9000A181808AE08280208DF80C0084F8209036
:103FA000E4E700F08F00802812D008E020F08000C5
:103FB00003E0A181E18200F0E00084F8200068784D
:103FC000F02801D985F801A004B04046BDE8F0878B
:103FD00094F820000206ECD5E8E70000001C014040
:103FE000008023424354502049443A25730D0A006F
:103FF000780000204354502049443A25780D0A00A7
:104000008800002039313100500100202EBD000809
:104010002DE9F04115460E4604460027FFF7D7FC70
:104020002820FFF779FDFFF70FFD200AFFF774FD49
:10403000FFF70AFDE0B2FFF76FFDFFF705FD002473
:1040400008E0305DFFF768FDFFF7FEFC070003D1D5
:10405000641CE4B2AC42F4D3FFF7D9FC3846BDE8A7
:10406000F08108B500218DF800108DF80100C048DE
:104070009DF80020435C491C1A44C9B28DF8002009
:10408000B829F5D3D0B2C043401C8DF80000B82247
:10409000B74948F24700FFF7BBFF0222694648F2E2
:1040A000FF00FFF7B5FF002008BD2DE9F0411546E0
:1040B0000F460446FFF78BFC2820FFF72DFDFFF786
:1040C000C3FC200AFFF728FDFFF7BEFCE0B2FFF7B4
:1040D00023FDFFF7B9FCFFF77AFC2920FFF71CFD51
:1040E000FFF7B2FC00246E1E09E0B44201D00120AB
:1040F00000E00020FFF73EFD3855641CE4B2AC42FE
:10410000F3D3BDE8F041FFF782BCFEB5012180206A
:1041100001F0D7FE4FF40060ADF8080010208DF8D4
:104120000B000320934F8DF80A0002A9384601F0D6
:10413000E0FC0221384601F046FD3C15ADF8084090
:1041400048208DF80B0002A9384601F0D2FC214628
:10415000384601F038FDFFF716FC874E0025C6F8FB
:10416000AC510A2006F5D67601F000F90120306046
:104170000A2001F0FBF8ADF8084028208DF80B006C
:1041800002A9384601F0B5FC2146384601F01DFD74
:10419000642001F0EBF80422694648F24010FFF772
:1041A00084FF8DF80450694674A004F0E1FD76A107
:1041B000684604F053FF10BB02208DF8000048F25F
:1041C0004004012269462046FFF722FF012269468A
:1041D000E01DFFF76AFF9DF80010602905D26CA072
:1041E00004F0C6FD0120FFF73CFF0A2001F0BEF8F5
:1041F0008DF80050012269462046FFF709FF002094
:10420000FEBD2DE9F147674D00244FF00A0A2878DA
:1042100083B0401CC0B2B0FBFAF20AFB1201624E3E
:10422000A046287009B10A2878D248F24E19012216
:1042300003A94846FFF739FF9DF80C004FF000072F
:1042400001060AD500F00F00062806D28DF804708A
:10425000012201A94846FFF7DBFE9DF80C0001078B
:104260005CD000F00F01062958D2FF2088408DF85D
:104270000400C04396F8209040F0C00086F820006B
:10428000B089B082F08AF0834FF0010896F82010D0
:1042900008FA04F0014226D035480422B8306946B5
:1042A00030F81400FFF701FF96F830009DF8011078
:1042B000C0079DF8000000EB012106EB44000AD086
:1042C000C1829DF802109DF8032001EB0221C1F587
:1042D0004871818107E081819DF802109DF80320DB
:1042E00001EB0221C182641CE4B2052CCED32F491C
:1042F000B2894FF001080B8830469A4203D8C28A2F
:1043000049888A4209D99DF80C1001F00F01012952
:104310000BD9C1898181018BF1822F709DF80C002E
:1043200000F08F0080280AD018E0818A8181C18B3B
:10433000C18280218DF80C1086F82090EEE796F867
:104340002000010602D520F0800005E04FF6FF7145
:10435000B181F18200F0E00086F820002878F02892
:1043600001D985F800A004B04046BDE8F087000000
:1043700042BD0008001C01400080234243545020ED
:1043800049443A25730D0A003931343700000000E2
:1043900044656661756C74205665723A25640D0A31
:1043A000000000007F000020880000205001002055
:1043B0002DE9F04115460E4604460027FFF707FB9E
:1043C000B220FFF7A9FBFFF73FFB200AFFF7A4FB92
:1043D000FFF73AFBE0B2FFF79FFBFFF735FB002446
:1043E00008E0305DFFF798FBFFF72EFB070003D1D5
:1043F000641CE4B2AC42F4D3FFF709FB3846BDE8D5
:10440000F0812DE9F04115460F460446FFF7DFFA2B
:10441000B220FFF781FBFFF717FB200AFFF77CFBB9
:10442000FFF712FBE0B2FFF777FBFFF70DFBFFF79B
:10443000CEFAB320FFF770FBFFF706FB00246E1ED9
:1044400009E0B44201D0012000E00020FFF792FB18
:104450003855641CE4B2AC42F3D3BDE8F041FFF739
:10446000D6BA08B500218DF8001010B180208DF863
:104470000000012269464FF45060FFF799FF08BD24
:104480007CB500258DF804500121802001F019FD34
:104490004FF40060ADF8000010208DF803000320F9
:1044A0006F4E8DF802006946304601F022FB022172
:1044B000304601F088FB3415ADF8004048228DF8F5
:1044C00003206946304601F014FB2146304601F0D6
:1044D0007AFBFFF758FA634CC4F8AC51642004F53A
:1044E000D67400F043FF01202060642000F03EFFFE
:1044F0000120FFF7B6FF012201A94FF45060FFF73A
:1045000080FF9DF8041058A004F032FC9DF80400D0
:10451000802801D001207CBD00207CBD2DE9F14F19
:10452000544F00244FF00A08387882B0401CC0B2C3
:10453000B0FBF8F208FB12014F4E2546387009B166
:104540000A2871D2012202A90020FFF75AFF9DF824
:104550000800C1066CD000F01F0040F0C000DFF87A
:104560001CA1DFF81CB186F820004FF0010996F875
:10457000201009FA04F0014249D042480422694659
:1045800030F81400FFF73DFF96F830009DF8021058
:10459000C0079DF8030000EB01201ED005F009F8CC
:1045A00052465B4605F054F804F0D6FF06EB44058E
:1045B000E8829DF801009DF8001000EB012004F056
:1045C000F8FF314A314B05F043F80022304B05F03B
:1045D00073F904F0C1FFA88119E004F0EAFF524624
:1045E0005B4605F035F804F0B7FF06EB4405A881FB
:1045F0009DF801009DF8001000EB012004F0D9FFA8
:10460000214A224B05F024F804F0A6FFE882641C3E
:10461000E4B2052CABD30125B28900211AB9F08A86
:1046200008B98DF8081039709DF80800C0060ED141
:1046300096F82000010602D520F0800005E04FF634
:10464000FF71B181F18200F0E00086F82000387837
:10465000F02801D987F800802846BDE8FE8F0000C9
:10466000001C0140008023424354502049443A2515
:10467000780D0A0080000020880000207B14AE47DF
:10468000E17AD43F04BE0008D881734694F6D23F45
:10469000000089402DE9F0470024FF4EFF4F0546FA
:1046A000A0464FF00109280601D5484600E04046E3
:1046B000C6F8A4016806050EC7F88481012000F041
:1046C0003DFEC7F88491641CE4B2082CEBD3BDE82E
:1046D000F0872DE9F0470025F04F2C462E46C7F80D
:1046E0008451DFF8B483C8F8A451C8F8AC5107F579
:1046F000C277FFF7CFFF062000F020FE3E600120CA
:1047000000F01CFE4FF00109C7F80090484600F089
:1047100015FE3E60B2464E464FF6FF79A7F5C277CA
:1047200009EA4404C7F884A1012000F007FEC7F895
:104730008461D7F8080108B1641CA4B26D1CEDB205
:10474000102DEDD32009C8F8AC61C0E7FEB50646D0
:1047500000246D463046FFF7BCFF25F81400641CAA
:10476000A4B2052CF6D300214C1CA0B20BE035F806
:10477000113035F81020934203D925F8112025F87F
:104780001030401C80B20528F1D3A1B20429EBD32C
:104790000021012035F81020401C114480B289B25C
:1047A0000428F7D30320B1FBF0F0FEBD2DE9F04162
:1047B000BB4F06460D463878FFF7C8FF04467878A9
:1047C000FFF7C4FF348028800120BDE8F08170B578
:1047D00086B00C460546694604A8FFF7E7FF0028A7
:1047E0002FD001A903A8FFF7E1FF002829D0BDF8C9
:1047F0000C30BDF81020934203D803F132008242FE
:1048000005D39A421FD802F1320083421BD2BDF871
:104810000410BDF80000814203D801F13206B04215
:1048200004D388420FD8323081420CD2D0184008CD
:104830002880BDF80000BDF804100844400820801E
:10484000012006B070BD0020FBE72DE9F0410446D1
:1048500094480D460B46028004F10D0082B21938CF
:1048600080B2FEF724FC05F10D0083B2193881B245
:1048700022461046FEF71BFC6E1C04F10108B1B283
:104880001FFA88F0FCF72BFBB1B2661EB0B2FCF742
:1048900026FB6F1EB9B21FFA88F0FCF720FBB9B2F5
:1048A000B0B2FCF71CFB29462046BDE8F0410622C9
:1048B000FEF763BC70B506467A480C460280304667
:1048C000FCF70DFB751CA8B22146FCF708FB641C25
:1048D000A1B23046FCF703FBA1B2A8B2BDE870401C
:1048E000FCF7FDBA70B56C49D1F828116C4C241D49
:1048F00041B194F82000010641D520F0800084F8F1
:10490000200043E00200664800F1040000F11601B7
:1049100000F10C0002D0FFF75AFF24E0FFF757FF29
:1049200008B3B4F92C0005F035FB0546A08905F065
:1049300049FB616A05F05AFB294605F0C5F905F007
:1049400009FBA081B4F92E0005F024FB0546E08A9E
:1049500005F038FBA16A05F049FB294605F0B4F9DA
:1049600005F0F8FAE08294F8200000060ED4C0208A
:1049700084F82000A089A082E08AE08306E000207D
:10498000A082E0834FF6FF70A081E08294F82000BF
:1049900000F0800070BD424910B50E222831282059
:1049A000FBF797FF0A21BDE810403620FBF725BF33
:1049B00010B53620FBF700FF0A2801D0002010BDFB
:1049C00037490E2228312820FBF772FF3448902205
:1049D000001D90F83030001FD02113B102704170DB
:1049E00001E001704270012010BD2DE9FF4F83B03E
:1049F0000E46DDE910A92B4907464FF47840DDF853
:104A00005080088028A01024CDE90040274D93460F
:104A1000A0216B882A882820FEF7F4FC24A0CDE989
:104A200000406B882A88A0217820FEF7EBFC21A0AB
:104A3000CDE900406B882A88B4212820FEF7E2FCEB
:104A40001DA0CDE900406B882A88B4217820FEF7AC
:104A5000D9FC1AA0CDE900406B882A88C8212820FB
:104A6000FEF7D0FC16A0CDE900406B882A88C8214B
:104A70007820FEF7C7FC13A0CDE900406B882A8898
:104A8000DC212820FEF7BEFC0FA0CDE90040DC2190
:104A90006B882A88782019E0008023420080214218
:104AA000840000206E00002078313A005001002080
:104AB00079313A0078323A0079323A0078333A0064
:104AC00079333A0078343A0079343A00FEF79AFCA8
:104AD000FEA0CDE900406B882A88F0212820FEF74F
:104AE00091FC04233A46A02140200094FEF700FCEC
:104AF00004233246A02190200094FEF7F9FB042302
:104B00005A46B42140200094FEF7F2FB042300949F
:104B1000B4219020069AFEF7EBFB04235246C821ED
:104B200040200094FEF7E4FB04234A46C82190206D
:104B30000094FEF7DDFB04230094DC214020129A50
:104B4000FEF7D6FB04230094DC219020139AFEF795
:104B5000CFFB03234246F02160200094FEF7C8FB00
:104B600007B0BDE8F08F2DE9F04FDA4E89B01F2075
:104B70003080D9484FF6FF77002507802C4638460D
:104B8000FCF719FB4FF47848A6F800803846FCF78C
:104B900012FBD2480027378001681020CDE90001C0
:104BA00028216423A0220846FEF72CFC142142464B
:104BB0000846FFF74AFECA48DFF8288380F82070CD
:104BC0004762C74E01207168884796F8200001218E
:104BD000B1EB901F4AD120F0400086F8200005A8D4
:104BE000B28920F8252000EB85006D1C0024F18A95
:104BF000EDB24180012D06D0022D12D0032D21D01F
:104C0000042D33D13EE014214FF6FF720846FFF722
:104C10001CFEB8F800004FF47842143880B214211A
:104C200022E0B8F800004646143880B24FF6FF7212
:104C30001421FFF70AFE70884FF47842143881B2CD
:104C4000142011E0B8F802004646143881B24FF63D
:104C5000FF721420FFF7F9FD70884FF47842143882
:104C600081B23088143880B2FFF7EFFD0A2000F0DF
:104C70007DFB641CA4B2B4F57A7FA2D9FFF798FE3D
:104C800009B06EE7BDF81400BDF81810411A00D540
:104C90004942BDF81600BDF81A20801A00D54042DE
:104CA00049434043084404F084FC04F07BFB04F0D7
:104CB00053FC85B2BDF81C00BDF82010411A00D588
:104CC0004942BDF81E00BDF82220801A00D540429E
:104CD00049434043084404F06CFC04F063FB04F0D7
:104CE0003BFC80B2814605F06DF90646284605F08A
:104CF00069F9314605F050F804F0BAFF06460F4650
:104D00004FF06632784B04F067FC4FD3774A784B0C
:104D10003046394604F09AFD48D3E5B3B9F1000FA7
:104D200044D0BDF81400BDF81C10411A00D549420A
:104D3000BDF81600BDF81E20801A00D54042494338
:104D40004043084404F035FC04F02CFB04F004FC60
:104D500085B2BDF81800BDF82010411A00D54942AF
:104D6000BDF81A00BDF82220801A00D54042494300
:104D70004043084404F01DFC04F014FB04F0ECFB79
:104D800080B205F01FF90646284605F01BF93146AA
:104D900005F002F800E009E004F06AFF06460F465D
:104DA0004FF06632504B04F017FC26D2B8F80210D0
:104DB000B8F8000014391438002589B280B24FF6D3
:104DC000FF72FFF742FD14214FF478420846FFF7C7
:104DD0003CFD0022474B3046394604F039FC04F0D4
:104DE000BBFB80B2BDF82220BDF82030BDF81E10FC
:104DF000CDE90320CDE9011391E0DFF8F0B0DFF851
:104E0000F0905A464B463046394604F01FFDCDD34C
:104E1000BDF81800BDF81C10411A00D54942BDF874
:104E20001A00BDF81E20801A00D540424943404375
:104E3000084404F0BEFB04F0B5FA04F08DFB85B223
:104E4000BDF81400BDF82010411A00D54942BDF844
:104E50001600BDF82220801A00D540424943404345
:104E6000084404F0A6FB04F09DFA04F075FB80B240
:104E700005F0A8F80646284605F0A4F8314604F0E7
:104E80008BFF04F0F5FE06460F464FF06632164BD8
:104E900004F0A2FB06D35A464B463046394604F08E
:104EA000D5FC4AD2B8F80210B8F80000143914380A
:104EB000002589B280B24FF6FF72FFF7C6FC1421BD
:104EC0004FF478420846FFF7C0FC15E066616320A6
:104ED00069733A006E0000207000002010BE0008C8
:104EE00088000020500100206666EE3FCDCCCCCC7F
:104EF000CCCCF03F000059400022AE4B3046394642
:104F000004F0A6FB04F028FB80B2BDF82210BDF827
:104F10002030BDF81E20CDE90310CDE90123BDF8F6
:104F20001C000090BDF81A30BDF81820BDF816100E
:104F3000BDF81400FFF759FD43E6BDF81800BDF8B1
:104F400014708146C01B05F025F8B8F800600546CE
:104F5000A6F1280005F01EF8294604F01DFF964D25
:104F60008246686209EB070005F02CF8514605F00F
:104F70003DF80746304605F025F8394605F002F9B8
:104F80004FF0FF3105F0A5F904F0C8FFA885BDF882
:104F90001E00BDF816108346401A019104F0FAFF76
:104FA000B8F802708146A7F1280004F0F3FF4946E3
:104FB00004F0F2FEA8620199814600900BEB01001B
:104FC00005F000F8494605F011F88146384604F02E
:104FD000F9FF494605F0D6F84FF0FF3105F079F9B1
:104FE00004F09CFFE885504604F098FF002800DAA2
:104FF0004042022807DC009804F090FF002800DA05
:105000004042022831DD143F143E0025B9B2B0B24F
:105010004FF6FF72FFF719FC14214FF4784208464F
:10502000FFF713FC65A11020CDE90001B8F80230AC
:10503000B8F800201A212820FEF7E4F95E4991F81B
:10504000300048B1002081F8300038B15A48902132
:10505000001F0170D02106E00120F4E75648D0215E
:10506000001F017090214170ABE559481F214FF698
:10507000FF7401802046FCF79EF856A11020CDE970
:105080000001B8F80230B8F800206E212320FEF7A6
:10509000B9F94FF47A7000F069F9FFF77CFC20460B
:1050A000FCF789F8ECE5F8B5504D434CA888A0F51D
:1050B000AA41103952D0A0F5C851633961D00121FD
:1050C000882000F0FEFE0220ADF800001024484FBA
:1050D0008DF8034003268DF802606946384600F0DB
:1050E00008FD0221384600F06EFD0420ADF80000F6
:1050F00048258DF803506946384600F0FAFC042133
:10510000384600F060FD4FF42067ADF800708DF870
:1051100003408DF80260374E6946304600F0E9FCE6
:105120003946304600F04FFDA401ADF800408DF83F
:1051300003506946304600F0DCFC2146304600F062
:1051400042FD1D491631A1F10A00FFF72FFBFBF7C5
:1051500031FBFFF72DFC18B30020F8BDFEF7D5FF9B
:1051600068B1FFF78DF92448606014F8300FA97911
:1051700040F0800001F0010108432070ECE71F4877
:10518000F2E7FEF782FD1E48606094F83000A979CE
:1051900040F0800001F00101084384F83000DBE7B3
:1051A0004FF6FF70FCF707F8FFF7DDFCFFF700FC98
:1051B0000120F8BD00005940880000205450204EC6
:1051C00065656420726561646A757374210000000E
:1051D0006E000020546F7563682053637265656EBE
:1051E0002041646A757374204F4B210050010020E8
:1051F000000C0140001C01401D450008034200084E
:10520000AB3D00082DE9FF4F81B00446DDE90E8675
:10521000074692460D468B46002081460CE0B9F1C8
:10522000000F10D007EB0A00801B4FF00009A042CE
:1052300002DAA81985B23C4698F80020002AEED17F
:1052400005B0BDE8F08F802A01D90120E5E707EB22
:105250000A00A0EB5600A04202DAA81985B23C462B
:1052600004990BEB0100801BA842E9DB0D2A0CD04E
:1052700010980090334629462046FDF7D6FF04EBF0
:10528000560008F1010884B2D6E7A81985B23C4659
:1052900008F10108F3E72DE9FE4307461C461546D1
:1052A000884610460A9E03F06DFE6108414388B2AD
:1052B00001220D49B04207D90095CDE901424B8842
:1052C0000A88414638460BE00095CDE90142301A84
:1052D00000EBD0704B880A8807EB500080B2414643
:1052E000FFF790FFBDE8FE835001002010B502F0EB
:1052F0004FFD012803D0BDE8104003F0CCBB10BD2A
:1053000010B5042000F04DF92B482C492C4A0068B8
:10531000B0FBF1F3B0FBF1F14FF47A70414313703D
:10532000012050804FF0E020026942F00202026149
:105330004161016941F00101016110BD70B54FF09B
:10534000E02500216C691E4AAB6912785043AA69B6
:105350009A42FCD002D2A3EB020302E0A4EB0206C5
:105360003344194413468142F1D370BD70B50446ED
:1053700002F00EFD01280CD0114D6888844203D341
:10538000B4FBF0F002F0DCF86888B4FBF0F100FB4D
:1053900011444FF47A706043BDE87040CEE770B5B9
:1053A000054600244FF47A7603E03046FFF7C6FF47
:1053B000641CAC42F9D370BD5400002040420F0081
:1053C000BC000020704740490A885206FCD53E4A7E
:1053D000C1B2121D1180704770B5054686B001211B
:1053E00044F2040000F06DFD4FF40070ADF81000C1
:1053F00003248DF812401820344E8DF8130004A9B0
:10540000304600F076FB3015ADF8100004208DF822
:10541000130004A9304600F06CFB25208DF8140021
:105420008DF815408DF8164001208DF8170005A85D
:1054300000F077F80020ADF80400ADF80600ADF8F4
:105440000800ADF80C000C201F4CADF80A000095C8
:105450006946204600F0B4FD012240F22551204665
:1054600000F02BFE0121204600F01DFE06B070BDAD
:1054700070B5154C40F22551204600F0D5FE0028AD
:105480000ED0204600F069FE114AC1B21088030414
:1054900006D444044FF0000306D50A2901D0138036
:1054A00070BD40F400400DE00D2909D0C0F30D049B
:1054B000084D401C80B229551080C728EFD870BD18
:1054C00040F48040108070BD003801400008014069
:1054D000C00000205E0100200948804709480047BD
:1054E000FEE7FEE7FEE7FEE7FEE7FEE7FEE7FEE794
:1054F000FEE7FEE704480549054A064B70470000F1
:10550000FD06000831010008D8550020D85B0020B6
:10551000D8570020D8570020284908432849086058
:10552000704730B50F23C27801780125F2B1244AC3
:10553000126801F1E02102F4E062C2F5E062120AB1
:10554000C2F10404D3404278A24084781C40144342
:10555000220181F80024007800F01F018D404009ED
:10556000800000F1E020C0F8005130BD01F01F00C4
:1055700085404809800000F1E020C0F8805130BD2E
:10558000104A114001430E48001F016070470C4A49
:10559000121D0029116801D0014300E08143116010
:1055A00070474FF0E0210428086903D020F0040080
:1055B0000861704740F00400FAE700000000FA05B7
:1055C0000CED00E080FFFF1F8100A1F1C04140B160
:1055D00043F2D20008606FF070404860C1F80401E7
:1055E00070474FF0204243F2DB001060F3E710B544
:1055F000182340244FF020414FF0FC32102805D0F2
:1056000041F8803F4C608A60CA6010BD0B664C66F2
:105610008A66CA6610BD4FF02040182140F8A01FCE
:10562000002141604FF0FC318160C1600161704731
:1056300010B5D0E901121143D0E903231A431143F5
:105640004269114382691143C2691143026A1143DD
:10565000426A1143826A1143C26A1143026B1143C9
:1056600002689200A2F1C04211608168082907D146
:1056700001688900A1F1C0410A6842F040020A6055
:10568000416BD1E9002342EA03128B688C891B022B
:1056900043EA04431A430B8A42EA03520B7D8969A9
:1056A00042EA03620A4301688900A1F1C0414A60ED
:1056B000C16AB1F5804F08D000686FF0704180007A
:1056C000A0F1C040C0F8041110BD816BD1E90023E6
:1056D00042EA03128B680C8A1B0243EA04531A4302
:1056E0000B7D896942EA036200680A438000A0F1E9
:1056F000C040C0F8042110BD30B5D0E901121143FB
:10570000D0E903231A431143426941EA42218269E5
:1057100041EA423141F00804C169D1E9002342EA7B
:1057200003220B89097B1B0443EA01610A43016AD6
:10573000D1E9003543EA05230D89097B2D0445EAAB
:1057400001610B4301684FF02040102904D040F85C
:10575000804F8260C36030BD04668266C36630BD20
:1057600010B5D0E9001241EA42218268102343EAD1
:10577000423211434FF0204242F8A01FC168D1E9E4
:10578000003443EA04230C89097B240444EA0161C0
:105790000B4393600169D1E9003443EA04230C8987
:1057A000097B240444EA01610B43D3604069D0E9DA
:1057B000001341EA03210389007B1B0443EA0060D4
:1057C0000143116110BD10B500210222C0E9001291
:1057D0008160C160016141618161D202C161C0E942
:1057E00008125200C0E90A210163436B0F221A60BC
:1057F000436B5A60446BFF23A360446BE260446BCD
:105800002261446B6261446BA161846B2260846B92
:105810006260846BA360836BDA60836B1A61836B55
:105820005A61806B816110BD1021016000214160CF
:105830008160C160016141618161C269FC211160C7
:10584000C2695160C2699160C269D160026A116027
:10585000026A5160026A9160006AC160704700216B
:10586000016041608160C268FC211160C2685160C2
:10587000C2689160C268D1600269116002695160BA
:10588000026991600269D1604269116042695160A8
:10589000426991604069C16070478000A0F1C040DA
:1058A0000029016802D041F0010101E0644A114081
:1058B000016070474FF0204251B1102804D052F8D7
:1058C000800F40F004000AE0106E40F004000AE08F
:1058D0005B49C91E102804D052F8800F08401060A0
:1058E0007047106E0840106670474FF02041002846
:1058F00051F8A00F02D040F0040002E0504AD21E3E
:105900001040086070474FF0204251B1102804D079
:1059100052F8800F40F040000AE0106E40F0400066
:105920000AE047493F39102804D052F8800F084058
:1059300010607047106E0840106670474FF02041AD
:10594000102802D0D1F894007047486F704710B506
:105950004FF480744FF0204372B1102804D0A0425D
:1059600005D153F8840F04E0586E08430DE053F856
:10597000A40F0843186010BD102804D0A04206D11F
:1059800053F8840F05E0586E8843586610BD53F8ED
:10599000A40F8843EEE7034600204FF02042102B6F
:1059A00008D0B3F5807F07D0D2F8A4200A4200D0F7
:1059B00001207047526EF9E7D2F88420F6E74FF0E5
:1059C0002042102807D0B0F5807F08D052F8A40FED
:1059D000884310607047506E88435066704752F895
:1059E000840FF5E7034600204FF02042102B0CD027
:1059F000B3F5807F0BD0D2F8A4200A4202EAD1018D
:105A000002D0002900D001207047526EF5E7D2F88D
:105A10008420F2E74FF02042102808D0B0F5807FB4
:105A20000AD052F8A40F20EAD10010607047506EDF
:105A300020EAD1005066704752F8840FF3E7000067
:105A4000FEFF0F008F4910B5884206D101210420C6
:105A500000F049FA002104203BE08B49884206D13E
:105A60000121082000F03FFA0021082031E0874999
:105A7000884206D10121102000F035FA00211020C3
:105A800027E08349884206D10121202000F02BFA2B
:105A9000002120201DE07F49884206D101214020BD
:105AA00000F021FA0021402013E07B49884206D112
:105AB0000121802000F017FA0021802009E07749B9
:105AC00088420AD184150121204600F00CFA0021F9
:105AD0002046BDE8104000F006BA10BD10B5012107
